:100000000C9488040C94AE0D0C94A5040C94A504D7
:100010000C94A5040C94A5040C94A5040C94A504BC
:100020000C94A5040C94A5040C94A5040C94A504AC
:100030000C94A5040C94A5040C94A5040C94A5049C
:100040000C94A5040C942F110C94A5040C94A504F5
:100050000C94A5040C94A5040C94A5040C94A5047C
:100060000C94A5040C94A5040C94A5040C94A5046C
:100070000000001818000000001824424224180054
:1000800024428100008142248100000000000081A0
:10009000000000000000000000FC2A572BF70B0FA7
:1000A0008B8FBBB7AFB4BC0000F82C562B774B4FEF
:1000B0004B772B562CF80000FF572B57EA54A854C7
:1000C000EA572B57FF0000FF2B572B775B575BD767
:1000D0001B171B1F000000000000000000F8542A3E
:1000E00057EB372B37EB572A54F80000FF572B57A5
:1000F0007F8000807F572B57FF0000FF572B577BD7
:10010000575B57DB171B171F0000FF572B57FB9739
:100110009B976B562A54F800003F20E1808F909007
:1001200093928C80C0203F0000FF808180FE0202FD
:1001300002FE808180FF0000FF808180FF000000C0
:10014000FF808180FF0000FF8081808E8A8A8A8BF9
:10015000888888F80000000000000000001F20418F
:100160008083848484838041201F0000000718213D
:100170004081868140211807000000FF8081808E29
:100180008A8A8A8B888888F80000FF808180FC0832
:10019000102040828789F000F008E41414E4080875
:1001A000F30D0101010101010101010101018DF3C3
:1001B0000808E41414E408F0070813244890213FC9
:1001C000C00000000000000000008050A855AAD523
:1001D0003F21904824130807000000000000070892
:1001E0000807020404C8380C0A3DCA0506030708BC
:1001F00008070000000000000000000000000000F0
:1002000000E09088888C8B8888CBACD8A8D0E000A0
:10021000000000000000000000FC0C1424448404D2
:100220000404040404040404040C14244C88102062
:1002300040800000000000000000000000000000FE
:1002400000000000000000000000000000000000AE
:1002500000000000F818284888888890A0C0000096
:10026000000000000000000000000000000000008E
:10027000000000000000000000000000000000007E
:100280000000F818284888888890A0C00000F81856
:10029000284888888890A0C000FF0000000000FF68
:1002A00001010101010101C141C1C1C1810101027D
:1002B000020DFE0000000000000000000000000031
:1002C000000000000000000000000000000000002E
:1002D00000000000FF000000FF00000000FF000021
:1002E000000000000000000000000000000000000E
:1002F00000000000000000000000000000000000FE
:100300000000FF000000FF00000000FF0000FF00F1
:100310000000FF00000000FF00FF0000000000FFE1
:10032000000000000000003F24272930100F0000CB
:100330000000FF00000000000000000000000000BE
:1003400000000000000000000000000000000000AD
:1003500000000000FF000000FF00000000FF0000A0
:10036000000000000000000000000000000000008D
:10037000000000000000000000000000000000007D
:100380000000FF000000FF00000000FF0000FF0071
:100390000000FF00000000FF00FF0000000000FF61
:1003A00000000000000000F010101010101088680D
:1003B000140B0804040404084810608000000000C6
:1003C000000000000000000000000000000000002D
:1003D00000000000FF000000FF00000000FF000020
:1003E000000000000000000000000000000000000D
:1003F00000000000000000000000000000000000FD
:100400000000FF000000FF00000000FF0000FF00F0
:100410000000FF00000000FF00FF0000000000FFE0
:1004200000000000000000FF0000000000000718AE
:1004300020405080A894AA554A25180700000000C3
:1004400000000000000000000000000000000000AC
:1004500000000000FF000000FF00000000FF40401F
:1004600040404040C08080000000000000000000CC
:10047000000000000000000000000000000000007C
:100480000000FF000000FF00000000FF0000FF0070
:100490000000FF00000000FF00FF0000000000FF60
:1004A00000000000000000FF00000000000000004D
:1004B000FE060A12E222222428F00000FE060A129A
:1004C000E2222222222222222222262A3624489096
:1004D00060C00000FF000000FF00000000E32222D7
:1004E0002222222242C484090A1428F0000000C0FB
:1004F000201008884444222222222222222428F08A
:100500000000FF000000FF00000000FF0000FF00EF
:100510000000FF00000000FF00FF0000000000FFDF
:1005200000000000000000FF0000000000000000CC
:10053000FF000000FF00000000FF0000FF000000BF
:10054000FF00000000F8040202FE3E1CF80000005C
:1005500003FF0000FF000000FF00000000FF00009C
:100560000000000000FF0307FE000000FF00FF0086
:100570000000FF000000FC02FE0E1EFE000000FF57
:100580000000FF000000FF00000000FF0000FF006F
:100590000000FF00000000FF000102040810207F9F
:1005A000404040404040407F00000000000000000C
:1005B000070810207F404040407F000007081020BF
:1005C0007F404040407F0000000F10207F404040AF
:1005D000407F0000070810207F40404040474545CD
:1005E00045454545454642412020100C0300010683
:1005F00008102F3060404345454444472020407F49
:100600000000070810207F404040407F000007089E
:1006100010207F404040407F0000000000000000AC
:1006200000065F5F060000000007070007070000E4
:10063000147F7F147F7F1400242E6B6B3A1200000E
:10064000466630180C666200307A4F5D377A480093
:100650000407030000000000001C3E63410000008E
:100660000041633E1C000000082A3E1C1C3E2A0874
:1006700008083E3E0808000000A0E06000000000FE
:10068000080808080808000000006060000000007A
:100690006030180C060301003E7F594D7F3E00007C
:1006A00042427F7F40400000627359496F660000FC
:1006B000226349497F360000181C16137F7F100003
:1006C000276745457D3900003C7E4B497930000065
:1006D000036371190F070000367F49497F36000018
:1006E000064F49693F1E000000006C6C00000000CE
:1006F00000A0EC6C00000000081C36634100000004
:100700001414141414140000004163361C08000073
:10071000020351590F0600003E7F415D5D1F1E0020
:100720007C7E13137E7C0000417F7F49497F360029
:100730001C3E634141632200417F7F41637F1C0077
:10074000417F7F495D416300417F7F491D01030077
:100750001C3E6341517372007F7F08087F7F000059
:1007600000417F7F41000000307040417F3F010029
:10077000417F7F081C776300417F7F4140607000AC
:100780007F7F060C067F7F007F7F060C187F7F002F
:100790001C3E6341633E1C00417F7F49090F0600F8
:1007A0001E3F21717F5E0000417F7F19396F460037
:1007B00026674D597B32000003417F7F41030000D3
:1007C0007F7F40407F7F00001F3F60603F1F000031
:1007D0007F7F3018307F7F0063771C081C776300B1
:1007E000074F78784F0700006773594D47637100D2
:1007F000007F7F41410000000103060C18306000BB
:100800000041417F7F000000080C0603060C080031
:1008100080808080808080800000030704000000CA
:10082000207454543C784000413F7F44447C38005D
:10083000387C44446C280000307848493F7F4000B1
:10084000387C54545C180000487E7F490302000045
:1008500098BCA4A4F87C0400417F7F08047C780045
:1008600000447D7D4000000040C484FD7D00000008
:10087000417F7F10386C440000417F7F40000000C2
:100880007C7C0C180C7C78007C7C04047C78000058
:10089000387C44447C38000084FCF8A4243C1800D4
:1008A000183C24A4F8FC8400447C78441C18000004
:1008B000485C54547424000000043E7F442400002B
:1008C0003C7C40403C7C40001C3C60603C1C000088
:1008D0003C7C6030607C3C00446C3810386C4400D8
:1008E0009CBCA0A0FC7C00004C64745C4C640000C8
:1008F00008083E77414100000000007777000000C3
:100900004141773E08080000020301030203010091
:1009100011241FBECFEFD4E0DEBFCDBF13E0A0E0B7
:10092000B1E0E2EDFFE202C005900D92AA38B107F6
:10093000D9F723E0AAE8B3E001C01D92AA3BB207B1
:10094000E1F70E94A7040C94E7170C940000609153
:1009500000017091010180910201909103010E94B8
:10096000CC040E947E0585B7806885BF80B7806211
:1009700080BF80B78F7E80BF80B7877F80BF0E9497
:10098000C50D0E94170F0E94C10B0E94980CFDCF4D
:100990005D9BFECF8CB9089520E038E542E050E041
:1009A0000E948D112150310930BD29B986E880BDE2
:1009B000549A539A84E091E09093B7038093B603DE
:1009C00008955F99FECF8CB190E00895811528E0DD
:1009D000920738F08AEC91E00E94C11481E090E027
:1009E0000895FC01F85E608380E090E00895FC01CA
:1009F000F85E80810895CF92DF92EF92FF920F937D
:100A00001F93CF93DF9385EF91E00E94C1140E9462
:100A10009B147C010E94A014C12CD12CC0E0D0E01A
:100A20000CE012E00E949B14F601F85E80832081A6
:100A30002817A1F099279F938F931F922F93DF92EE
:100A4000CF921F930F930E94AB1421968DB79EB740
:100A500008960FB6F8949EBF0FBE8DBF9FEFC91AC0
:100A6000D90AC11488E0D806E9F6C7010E94A0148B
:100A700000E010E0E12CF12C0F2EF6E4CF2EF2E096
:100A8000DF2EF02D0E949B14F801F85E20812817BC
:100A9000B1F099279F938F931F922F931F930F93DA
:100AA000DF92CF920E94AB149FEFE91AF90A8DB73B
:100AB0009EB708960FB6F8949EBF0FBE8DBF0F5F0E
:100AC0001F4F011598E01907E9F6FF92EF92DF93A7
:100AD000CF9384E892E09F938F930E94AB140F9082
:100AE0000F900F900F900F900F90DF91CF911F916B
:100AF0000F91FF90EF90DF90CF900895BB980895ED
:100B000000C000C0000080930014B399FECF809114
:100B10000014B39BFECF0895B898B99884E090E094
:100B20000E9480058093130185E090E00E9480057B
:100B3000809312010895CF93262FA0911301B0E066
:100B4000E0911201F0E0482F50E0CA018A1B9B0B94
:100B5000AF57B109AD0112F44F5F5F4F55954795FF
:100B6000480F591F38EC349FC001359F900D112458
:100B70006FEF70E00E947911C62F30E0A9014E1B83
:100B80005F0BEF57F1099F0112F42F5F3F4F35952F
:100B90002795240F351F48EC429FC001439F900DBD
:100BA00011246FEF70E00E947911962F8C2FCF9156
:100BB0000895CF93DF9384E090E00E948005C82FD2
:100BC00085E090E00E948005D82F682F8C2F0E942E
:100BD0009B054C2F50E02091130130E0B901625386
:100BE000710964177507B4F0482F082E000C550BD7
:100BF00055231CF4519541955109292F092E000CBC
:100C0000330B33231CF43195219531092417350713
:100C1000E4F457C02E5C3F4F42175307B4F0482FFF
:100C2000082E000C550B55231CF451954195510984
:100C3000292F092E000C330B33231CF431952195F9
:100C40003109241735070CF43FC06D2F70E0209157
:100C5000120130E0A9014253510946175707B4F079
:100C6000292F990F330B33231CF43195219531092A
:100C7000082E000C990B99231CF4919581959109EC
:100C80008217930724F583E090E029C02E5C3F4F44
:100C900062177307FCF0292F990F330B33231CF4D1
:100CA000319521953109082E000C990B99231CF4DC
:100CB000919581959109821793077CF482E090E0E9
:100CC0000EC080E090E00BC081E090E008C084E0BE
:100CD00090E005C084E090E002C084E090E0DF9105
:100CE000CF91089584E090E00E948005089586E009
:100CF00090E00E948005089587E090E00E948005C2
:100D00000895B09905C0B19906C082E090E00895B9
:100D100080E090E0089581E090E00895082E000CB6
:100D2000990B8097880F991F880F991F880F991F1B
:100D3000FC01E85EF94F805E994FA0E0B2E124919A
:100D40002C933196E817F907D1F70895883018F4F5
:100D5000805580930010089588234CF0982F9F7041
:100D6000E0E0F0E1908382958F70805F808308954A
:100D7000CF93C62F0E94A6068C2F0E94AC06CF915F
:100D8000089560E080E00E94B806089524E131E013
:100D90003093B7032093B6039F938F930E94AB14B5
:100DA0000F900F900895CF93DF93883068F40E94DE
:100DB000A606C0E8D0E08EED92E00E94C60621971C
:100DC000D1F780E00E94AC06DF91CF910895CF93D8
:100DD000C0E08C2F0E94D306CF5FC830D1F70E94AD
:100DE000C106CF910895E0E0F0E18EEA808381EAC8
:100DF00080838AED808382E1808388EC808388EA27
:100E000080838FE3808385ED808380E8808381E821
:100E1000808380E5808389ED808381E2808380E226
:100E2000808382E080838BED808380E380838DEA02
:100E30008083108284EA808386EA80838FEA8083BD
:100E400080EB8083108280E180830E94E706089512
:100E5000FF920F931F93CF93DF93C8E1D2E0F12C61
:100E600000E012E18F2D0E94A6069E0120583F4F00
:100E7000FE019491F80190832196C217D307C1F720
:100E8000F394E901F8E0FF12EDCFDF91CF911F91CC
:100E90000F91FF900895DF92EF92FF920F931F93AF
:100EA000CF93DF936FE280E00E94B806C8E9D1E0FB
:100EB0000F2EF3E0DF2EF02D0F2EE12CF2E1FF2EAE
:100EC000F02D8D2D0E94A6068E01005E1F4FFE01A3
:100ED0009491F70190832196C017D107C1F78FE253
:100EE0000E94AC06D394E801F7E0DF12EACFDF916D
:100EF000CF911F910F91FF90EF90DF90089580E0C8
:100F00000E94A606E8E9F0E028E131E0A0E0B2E1C5
:100F100084918C933196E217F307D1F781E00E9418
:100F2000A606E8E1F1E028E931E0A0E0B2E1849131
:100F30008C933196E217F307D1F70895CF93DF939F
:100F4000EC016EE183E00E94B806CC0FDD1FCC0FF0
:100F5000DD1FCC0FDD1FFE01E059FF4F9E01285819
:100F60003F4FA0E0B2E184918C933196E217F307F2
:100F7000D1F76AE583E00E94B806FE01E059FF4F11
:100F80009E0128583F4FA0E0B2E184918C933196A6
:100F9000E217F307D1F760E584E00E94B806FE018E
:100FA000E059FF4F9E0128583F4FA0E0B2E18491E5
:100FB0008C933196E217F307D1F76CE382E00E943D
:100FC000B806FE01E059FF4FC858DF4FA0E0B2E17C
:100FD00084918C933196EC17FD07D1F7DF91CF9177
:100FE00008950F931F93CF93DF938C01EB0188E05B
:100FF00090E00E942213009749F0FC0113830283C2
:101000001782168215821482D183C083DF91CF911B
:101010001F910F9108950F931F93CF93DF93009724
:10102000C9F08C01FC01C481D581209711F40CC05A
:10103000EC018E819F810097D9F78A819B810E9464
:10104000F1079F838E8308C00E94F107F801958302
:10105000848302C080E090E0DF91CF911F910F91D7
:101060000895CF93DF93C0918C03D0918D03A98114
:10107000BA811296ED91FC9113970480F581E02DD1
:1010800001C0FC0186819781009721F0A817B9075C
:10109000C1F70BC0109749F01696ED91FC91179788
:1010A000309749F4FD0121E00EC0FA83E98388817D
:1010B000815088830BC021E001C0FC012F5F868135
:1010C00097810097D1F7FA83E9832883DF91CF9145
:1010D0000895E0918C03F0918D03A181B281169661
:1010E0008D919C911797009731F092838183808135
:1010F0008F5F8083089512960D90BC91A02D149659
:101100008D919C9115979283818381E080830895CE
:1011100064E6809123010E94B8068EED92E00E9461
:10112000C606E0918C03F0918D0364E680810E94F5
:10113000B80680EE92E00E94C606E0918C03F09122
:101140008D0380818093230108951F93CF93DF93B4
:101150000E94E70660E080E00E94B806E0918C0300
:10116000F0918D030180F281E02DC281D3818881CD
:1011700099810E94C606209711F10C80DD81C02D57
:101180002097E9F06AE081E00E94B80688819981A1
:101190000E94C6060E80DF81C02D209781F082E07C
:1011A00011E0180F6AE00E94B806888199810E94B8
:1011B000C6060E80DF81C02D812F209789F70E94FF
:1011C0008808DF91CF911F910895E0918C03F091F1
:1011D0008D03A181B28114968D919C9115970097F2
:1011E00049F09283818381E080830E94A50884E096
:1011F00090E008958D919C9123E08234920771F0E4
:1012000022E0823E920769F022E0883E920761F078
:101210008E5E924061F084E090E0089580E090E07E
:10122000089581E090E0089582E090E0089583E0E1
:1012300090E00895811115C0E0918C03F0918D0329
:10124000A181B28112968D919C911397009749F0DC
:1012500020918E0330918F038217930711F09283B0
:101260008183E0918C03F0918D0381E08083A181E3
:10127000B28112960D90BC91A02D14968D919C91E7
:101280001597928381830E94A50808950F931F9359
:10129000CF93DF9364EF72E080E090E00E94F1076B
:1012A000EC0190938F0380938E036EEF72E00E94A7
:1012B0000B088C0162E473E00E940B0868EE72E098
:1012C000C8010E940B086EEE72E0CE010E940B086E
:1012D00062EE72E0CE010E940B0883E090E00E9473
:1012E000221390938D0380938C032C813D81FC010C
:1012F0003283218321E02083DF91CF911F910F91D1
:1013000008950E94E70660E080E00E94B80683E04E
:1013100093E00E94C60660E082E00E94B8068EE07C
:1013200093E00E94C6060895CF93DF9300D000D0CB
:101330001F92CDB7DEB7BE016F5F7F4F0E94C9100D
:1013400060E084E00E94B806CE0101960E94C606C5
:101350000F900F900F900F900F90DF91CF91089505
:1013600084E00E94D3060895CF93C82F80918B0309
:101370008C1751F064E68D5F0E94B8068EED92E006
:101380000E94C606C0938B0364E683E08C0F0E9424
:10139000B80680EE92E00E94C606CF9108950E94A2
:1013A000E70660E080E00E94B80685E193E00E94D5
:1013B000C60660E081E00E94B80686E293E00E94E3
:1013C000C60660E083E00E94B80684E393E00E94D2
:1013D000C60660E084E00E94B80687E393E00E94BE
:1013E000C60680E00E94B4090895CF93C82F80916B
:1013F0008A038C1751F064E68E5F0E94B8068EED6A
:1014000092E00E94C606C0938A0364E682E08C0FD5
:101410000E94B80680EE92E00E94C606CF91089521
:10142000CF93C82F0E94E70660E080E00E94B806D4
:101430008BE393E00E94C60660E082E00E94B8065B
:1014400089E493E00E94C60660E083E00E94B8064B
:101450008EE493E00E94C60660E084E00E94B80635
:1014600084E593E00E94C60660E085E00E94B8062D
:101470008CE593E00E94C6068C2F0E94F509CF915F
:101480000895CF93C82F809122018C1751F060E509
:101490008E5F0E94B8068EED92E00E94C606C09351
:1014A000220160E582E08C0F0E94B80682E693E09C
:1014B0000E94C606CF9108950E94E70660E080E092
:1014C0000E94B80684E693E00E94C6060E944B077D
:1014D0000895EF92FF921F93CF93DF9300D000D037
:1014E0001F92CDB7DEB77C01162F0E94E70660E0A1
:1014F00080E00E94B8060E947F0760E084E00E94BE
:10150000B80683E793E00E94C6066CE384E00E947D
:10151000B806E12FF0E0EE0FFF1FE25BFE4F808187
:1015200091810E94C60660E085E00E94B8068BE7C4
:1015300093E00E94C606BE016F5F7F4FC7010E9405
:10154000C9106CE385E00E94B806CE0101960E94A6
:10155000C6060F900F900F900F900F90DF91CF91D4
:101560001F91FF90EF9008950F931F93CF93DF93F8
:1015700000D000D01F92CDB7DEB78C010E94E706E5
:1015800060E080E00E94B80683E893E00E94C6060F
:1015900060E082E00E94B80689E493E00E94C606FB
:1015A000BE016F5F7F4FF801808191810E94C91059
:1015B0006CE382E00E94B806CE0101960E94C60646
:1015C00060E083E00E94B8068EE493E00E94C606C5
:1015D000BE016F5F7F4FF801828193810E94C91025
:1015E0006CE383E00E94B806CE0101960E94C60615
:1015F00060E084E00E94B80684E593E00E94C6069D
:10160000BE016F5F7F4FF801848195810E94C910F0
:101610006CE384E00E94B806CE0101960E94C606E3
:1016200060E085E00E94B8068CE593E00E94C60663
:10163000BE016F5F7F4FF801868197810E94C910BC
:101640006CE385E00E94B806CE0101960E94C606B2
:101650000F900F900F900F900F90DF91CF911F91EF
:101660000F91089580919C0390919D03089585E0CA
:10167000E5ECF1E0A3E9B3E001900D928A95E1F782
:1016800084E090E0089585E0EBEBF1E0A3E9B3E0BE
:1016900001900D928A95E1F784E090E0089580E052
:1016A0000E941A090E94880881E090E0089581E074
:1016B0000E941A090E94880881E090E00895CF9363
:1016C0000E947206C82F0E947C0695E0E6EBF1E0CE
:1016D000A3E9B3E001900D929A95E1F7E3E9F3E015
:1016E000C383848384E090E0CF91089580919E032A
:1016F0000E94410A82E090E008950E9431080E9411
:10170000880881E090E008950E9469080E94880896
:1017100081E090E008958091AC03811103C081E0E5
:101720008093AC038091AC030E94B40983E090E005
:1017300008958091AC0381111092AC038091AC03A9
:101740000E94B40983E090E0089580919E03833065
:1017500018F48F5F80939E0380919E030E94F50989
:1017600082E090E0089580919E03882319F08150D3
:1017700080939E0380919E030E94F50982E090E091
:1017800008950E94F3060E9428078BE090E00E94D3
:10179000221390939B0380939A038BE090E00E9426
:1017A0002213909399038093980310929D031092B3
:1017B0009C030895CF93DF930E94D905EC010E940A
:1017C0008106209126013091270128173907C9F099
:1017D0009093270180932601009719F0019761F0FB
:1017E00010C080919C0390919D03049799F10E94F1
:1017F000321086E090E036C00E94321085E090E022
:1018000031C080912401909125018C179D0729F109
:10181000D0932501C0932401C230D10579F028F47A
:101820002097F1F0219739F012C0C330D10549F06B
:10183000249751F00CC081E090E014C082E090E069
:1018400011C083E090E00EC084E090E00BC087E020
:1018500090E008C086E090E005C087E090E002C01C
:1018600080E090E0DF91CF9108950E945C0A089596
:1018700064E082EA93E00E94B40A08950E94E508B9
:1018800082309105F9F028F4009751F0019799F012
:1018900046C083309105F1F1049709F441C03FC07F
:1018A00080919E030E94100A80919E030E94410A2B
:1018B00082E090E008958091AC030E94CF0983E01C
:1018C00090E008950E94B0092CEC8CE091E021504A
:1018D00080409040E1F700C0809198039091990377
:1018E0000E942D0E892BC1F31092AB031092AA0314
:1018F000109292031092910385E0E0ECF1E0A3E9ED
:10190000B3E001900D928A95E1F70E94810984E08D
:1019100090E008950E94380C85E090E008950895C5
:1019200081E090E0089560919E030E94690A089505
:10193000CF93DF930E94DA0B20919C0330919D039B
:10194000220F331F220F331F220F331F820F931FCB
:10195000FC01EE0FFF1FEA5AFE4F0190F081E02DCF
:10196000099590939D0380939C03049709F0A5C06B
:10197000E0919A03F0919B031182108285E08283AB
:10198000C3E9D3E088818383898184838A818583C5
:101990008B8186838C818783CF010E94E30D80E059
:1019A00090EF0197F1F78981882379F01092AB03CA
:1019B0001092AA0310929203109291030E94570B67
:1019C00090939D0380939C0378C08091980390919D
:1019D00099030E942D0E892B09F06FC0E0919803A6
:1019E000F09199032381A0E9B3E02C93858190E0E5
:1019F000982F88273481832B12969C938E9311976E
:101A00009093AB038093AA03213009F04DC00E944C
:101A1000930C0E94480F9FEF2FEF8EE091502040D3
:101A20008040E1F700C0000080919E0390E060914B
:101A3000AA037091AB03FC01EE0FFF1FEE55FC4FA4
:101A4000208131812617370790F50E94F8102091E8
:101A50009E038091AA039091AB03E22FF0E0EE0F7A
:101A6000FF1FEE55FC4F9183808340919F0350915F
:101A7000A00348175907D8F42093A1039093A0031B
:101A800080939F030E945C0A0E9413110E948E0F94
:101A90009FEF2FEF8EE0915020408040E1F700C093
:101AA00000000E946F1103C00E94940906C00E94AA
:101AB000570B90939D0380939C03DF91CF910895E2
:101AC0000F931F93CF93DF931092A00310929F0365
:101AD00002EA13E0C0E0D0E0CE010E94E110F8017C
:101AE000819391938F0120919F033091A003281738
:101AF000390730F49093A00380939F03C093A10310
:101B00002196C430D10541F7DF91CF911F910F91FC
:101B100008950E9446090E94600D0E94A50881E078
:101B200090E008958091AC03813021F40E94081167
:101B30000E94600D1092AC030E94570B08958FB95C
:101B4000779BFECF089580E00E949F0D8FB108958E
:101B500080EB87BB81E58DB9C49A08951F920F92DF
:101B60000FB60F9211248F939F9381E08093AD0362
:101B700088E291E09093B7038093B6039F918F9191
:101B80000F900FBE0F901F90189580E00E94DA0E04
:101B9000F89485B7826085BF85B78E7F85BF8BB788
:101BA00080648BBF789440E064E08BE20E94B20EC8
:101BB00040E664E680E60E94B20E41E061E08BE21E
:101BC0000E94B20E0895EF92FF920F931F93CF934E
:101BD000DF937C0188E291E09093B7038093B60392
:101BE000F701608171817695679576956795769511
:101BF000679581E30E94930EF70140814295440F5F
:101C0000407E68EE82E30E94B20EF70142816FE0EF
:101C100085E30E94B20EF7018281882399F0870143
:101C20000D5F1F4FC0E0D0E0F80161918F018C2F54
:101C30008A5C0E94930E2196F701228130E0C21740
:101C4000D30794F381E80E94A70E80E0DF91CF9143
:101C50001F910F91FF90EF900895EF92FF920F93D5
:101C60001F93CF93DF937C019091AD039923E1F112
:101C700081E60E94810EC82F82E60E94810E282FE5
:101C80002295269527708C2F90E0880F991F880F3A
:101C9000991F880F991F822BF7019183808385E616
:101CA0000E94810E8F70F7018283882399F087014B
:101CB0000D5F1F4FC0E0D0E08C2F8A590E94810E2B
:101CC000F80181938F012196F701228130E0C2173C
:101CD000D30794F31092AD0340E061E08CE20E94E0
:101CE000B20E80E090E002C081E090E0DF91CF9101
:101CF0001F910F91FF90EF900895C4980895C49A92
:101D00000895CF93C82F0E947D0E83E00E949F0DFF
:101D10008C2F0E949F0D0E94A30DC82F0E947F0E42
:101D20008C2FCF910895CF93DF93D82FC62F0E9489
:101D30007D0E82E00E949F0D8D2F0E949F0D8C2FA3
:101D40000E949F0D0E947F0EDF91CF910895CF9347
:101D5000C82F0E947D0E8C2F0E949F0D0E947F0E27
:101D6000CF9108951F93CF93DF93182FD62FC42FB1
:101D70000E947D0E85E00E949F0D812F0E949F0D85
:101D80008D2F0E949F0D8C2F0E949F0D0E947F0E11
:101D9000DF91CF911F9108950E947D0E80EC0E94EB
:101DA0009F0D0E947F0E8FEF9FE20197F1F700C019
:101DB00000000895CF93C82F26E331E03093B70396
:101DC0002093B6030E94A80D0E94CC0E8EE00E94C4
:101DD000810E807E803841F086E391E09093B703D6
:101DE0008093B60381E013C06C2F8FE00E94930EA6
:101DF0008EE00E94810E807E8C1741F086E391E098
:101E00009093B7038093B60381E001C080E0CF9147
:101E10000895CF930E947D0E80EA0E949F0D0E943C
:101E2000A30DC82F0E947F0E8C2FCF9108958FB5E0
:101E300082608FBD8FB58E7F8FBD8EB580618EBD68
:101E40008EB588608EBD8FB580628FBD8FB58F7E59
:101E50008FBD329A8EB582608EBD8EB58B7F8EBD62
:101E60008EB58E7F8EBD7894089520E030E040E8F6
:101E700051E40E94B5129B01AC0160E070E086E97C
:101E80009AE40E94C3110E94351275BD64BD089585
:101E900083E090E099BD88BD8FE991E095BD84BD58
:101EA0002FEF8FE797E0215080409040E1F700C08E
:101EB000000087EB91E095BD84BD2FEF8FE797E0A1
:101EC000215080409040E1F700C0000081ED91E09A
:101ED00095BD84BD2FEF8FE797E021508040904063
:101EE000E1F700C000008DEE91E095BD84BD2FEFBD
:101EF0008FE796E1215080409040E1F700C000C09C
:101F000020E030E0A90160E070E086E99AE40E94F8
:101F1000C3110E94351275BD64BD0895CF93DF9340
:101F200087E090E099BD88BDCBE4D2E0D5BDC4BDCB
:101F300022E333E341E0215030404040E1F700C06C
:101F400000C020E030E0A90160E070E086E99AE49A
:101F50000E94C3110E94351275BD64BD52E3E3E3D4
:101F600021E05150E0402040E1F700C000C0D5BD65
:101F7000C4BD32E343E351E0315040405040E1F70B
:101F800000C000C075BD64BDE2E323E331E0E15071
:101F900020403040E1F700C000C0D5BDC4BD42E3E1
:101FA00053E3E1E041505040E040E1F700C000C0A1
:101FB00075BD64BD22E333E341E021503040404031
:101FC000E1F700C000C0D5BDC4BD52E3E3E327E0A4
:101FD0005150E0402040E1F700C000C021E731E06F
:101FE00035BD24BD32E343E357E03150404050401B
:101FF000E1F700C000C029E431E035BD24BDE2E3D3
:1020000043E357E0E15040405040E1F700C000C0DA
:10201000D5BDC4BDE6E646E652E0E1504040504042
:10202000E1F775BD64BDE6E646E652E0E1504040AA
:102030005040E1F735BD24BDE6E626E632E0E1504A
:1020400020403040E1F7D5BDC4BD49E959E9E5E19B
:1020500041505040E040E1F700C075BD64BDDF91E4
:10206000CF91089582E090E099BD88BD87E391E02B
:1020700095BD84BD2FEF8FE791E0215080409040C7
:10208000E1F700C000C020E030E0A90160E070E0AE
:1020900086E99AE40E94C3110E94351275BD64BDA1
:1020A0000895FC012081FB013081FC013083FB019C
:1020B000208308959B01215031091216130684F4E0
:1020C000FC01E60FF71FDC0180E090E04C9152919B
:1020D0005D93408301962150310982179307B4F331
:1020E0000895CF92DF92EF92FF920F931F93CF93B9
:1020F000DF93FC017B018A01009731F480E3DB016F
:102100008C9311961C923BC099234CF44A30510594
:1021100041F4F195E195F10911F141E003C040E08E
:1021200001C040E06701C0E0D0E0CF01B8010E94EB
:10213000791121968A3091051CF027E5280F02C0FD
:1021400020E3280FD6012D936D01CF01B8010E9425
:102150007911FB01309749F7442349F002C0C0E0F0
:10216000D0E0F701EC0FFD1F8DE280832196F7018F
:10217000EC0FFD1F1082BE01C7010E945A10C7015B
:10218000DF91CF911F910F91FF90EF90DF90CF9053
:1021900008954AE050E00E9471100895F894E19982
:1021A000FECF9FBB8EBBE09A78948DB30895F894D0
:1021B000E199FECFF8988EBB6DBBE29AE19A7894D4
:1021C00008950F931F93CF938C01000F111FC80127
:1021D0000E94CE10C82FC80101960E94CE102C2F4D
:1021E00030E0A901582BCA01CF911F910F9108959A
:1021F000CF93DF93D72FC82FCC0F8C2F0E94D710EF
:102200006D2F81E08C0F0E94D710DF91CF91089540
:10221000CF93C0E060E08C2F0E94D710CF5FC83012
:10222000C9F7CF91089583B78F7B83BF83B7877F2B
:1022300083BF83B78F7E83BF83B78F7D83BF83B711
:10224000816083BF83B78D7F83BF83B7846083BF83
:1022500089B7826089BF88B7826088BF08951F925E
:102260000F920FB60F9211242F933F934F935F93CA
:102270006F937F938F939F93AF93BF93EF93FF934E
:102280008091AE039091AF030A9721F41092AF03AF
:102290001092AE038091AE039091AF0399230CF49A
:1022A0000196959587950E949E078091AE03909127
:1022B000AF0301969093AF038093AE03FF91EF912C
:1022C000BF91AF919F918F917F916F915F914F914E
:1022D0003F912F910F900FBE0F901F90189583B7CD
:1022E0008E7F83BF83B78D7F83BF83B78B7F83BF91
:1022F000089597FB072E16F4009407D077FD09D0B8
:102300000E94AF1107FC05D03EF4909581959F4F38
:102310000895709561957F4F0895A1E21A2EAA1B2A
:10232000BB1BFD010DC0AA1FBB1FEE1FFF1FA21785
:10233000B307E407F50720F0A21BB30BE40BF50B82
:10234000661F771F881F991F1A9469F7609570950B
:10235000809590959B01AC01BD01CF010895AA1B0A
:10236000BB1B51E107C0AA1FBB1FA617B70710F080
:10237000A61BB70B881F991F5A95A9F780959095B2
:10238000BC01CD0108950E94D7110C947B120E94CC
:10239000741258F00E946D1240F029F45F3F29F04A
:1023A0000C94641251110C94AF120C946A120E9496
:1023B0008C1268F39923B1F3552391F3951B550BB8
:1023C000BB27AA2762177307840738F09F5F5F4F08
:1023D000220F331F441FAA1FA9F335D00E2E3AF047
:1023E000E0E832D091505040E695001CCAF72BD05F
:1023F000FE2F29D0660F771F881FBB1F26173707B0
:102400004807AB07B0E809F0BB0B802DBF01FF27E1
:1024100093585F4F3AF09E3F510578F00C94641248
:102420000C94AF125F3FE4F3983ED4F38695779512
:102430006795B795F7959F5FC9F7880F911D96959A
:10244000879597F90895E1E0660F771F881FBB1FF6
:10245000621773078407BA0720F0621B730B840BA3
:10246000BA0BEE1F88F7E09508950E94941288F049
:102470009F5798F0B92F9927B751B0F0E1F0660F48
:10248000771F881F991F1AF0BA95C9F714C0B13089
:1024900091F00E94AE12B1E008950C94AE12672F35
:1024A000782F8827B85F39F0B93FCCF386957795B8
:1024B0006795B395D9F73EF49095809570956195A1
:1024C0007F4F8F4F9F4F089597F99F6780E870E087
:1024D00060E008959FEF80EC089500240A9416169A
:1024E000170618060906089500240A941216130602
:1024F000140605060895092E0394000C11F4882390
:1025000052F0BB0F40F4BF2B11F460FF04C06F5FAB
:102510007F4F8F4F9F4F089557FD9058440F551F81
:1025200059F05F3F71F04795880F97FB991F61F055
:102530009F3F79F087950895121613061406551FCC
:10254000F2CF4695F1DF08C0161617061806991F38
:10255000F1CF86957105610508940895E894BB272D
:1025600066277727CB0197F908950E94C8120C942B
:102570007B120E946D1238F00E94741220F0952395
:1025800011F00C9464120C946A1211240C94AF1282
:102590000E948C1270F3959FC1F3950F50E0551F68
:1025A000629FF001729FBB27F00DB11D639FAA27A8
:1025B000F00DB11DAA1F649F6627B00DA11D661FF7
:1025C000829F2227B00DA11D621F739FB00DA11D18
:1025D000621F839FA00D611D221F749F3327A00DD2
:1025E000611D231F849F600D211D822F762F6A2F6E
:1025F00011249F5750409AF0F1F088234AF0EE0FD3
:10260000FF1FBB1F661F771F881F91505040A9F7FF
:102610009E3F510580F00C9464120C94AF125F3F02
:10262000E4F3983ED4F3869577956795B795F7953B
:10263000E7959F5FC1F7FE2B880F911D96958795B3
:1026400097F90895CF93DF938230910510F482E0DB
:1026500090E0E091B203F091B30320E030E0C0E0FD
:10266000D0E0309711F14081518148175907C0F0EF
:102670004817590761F482819381209719F09B8351
:102680008A832BC09093B3038093B20326C0211595
:10269000310519F04217530718F49A01BE01DF0102
:1026A000EF010280F381E02DDCCF2115310509F126
:1026B000281B390B2430310590F412968D919C9192
:1026C00013976115710521F0FB019383828304C088
:1026D0009093B3038093B203FD01329644C0FD0191
:1026E000E20FF31F81939193225031092D933C9374
:1026F0003AC02091B0033091B103232B41F42091D3
:102700004601309147013093B1032093B0032091EB
:102710004401309145012115310541F42DB73EB7F3
:102720004091480150914901241B350BE091B003C1
:10273000F091B103E217F307A0F42E1B3F0B28170B
:10274000390778F0AC014E5F5F4F2417350748F02A
:102750004E0F5F1F5093B1034093B0038193919349
:1027600002C0E0E0F0E0CF01DF91CF9108950F9338
:102770001F93CF93DF93009709F48CC0FC0132972D
:10278000138212820091B2031091B3030115110557
:1027900081F420813181820F931F2091B003309109
:1027A000B1032817390779F5F093B103E093B0032B
:1027B00071C0D80140E050E0AE17BF0750F4129648
:1027C0002D913C911397AD012115310509F1D901E6
:1027D000F3CF9D01DA013383228360817181860FFB
:1027E000971F8217930769F4EC0128813981260F1E
:1027F000371F2E5F3F4F318320838A819B819383D4
:102800008283452B29F4F093B303E093B20342C0D3
:102810001396FC93EE931297ED01499159919E0105
:10282000240F351FE217F30771F480819181840F23
:10283000951F029611969C938E9382819381139695
:102840009C938E931297E0E0F0E0D80112968D9160
:102850009C911397009719F0F8018C01F6CF8D9198
:102860009C9198012E5F3F4F820F931F2091B003E0
:102870003091B1032817390769F4309729F4109281
:10288000B3031092B20302C0138212821093B103F9
:102890000093B003DF91CF911F910F9108958F9214
:1028A0009F92AF92BF92CF92DF92EF92FF92CF931F
:1028B000DF93EC01688179818A819B8161157105C3
:1028C0008105910521F464E279ED8BE597E02DE136
:1028D00033EF41E050E00E946F1749015A019B011C
:1028E000AC01A7EAB1E40E948E176B017C01ACEE4B
:1028F000B4EFA50194010E949C17DC01CB018C0D63
:102900009D1DAE1DBF1DB7FF03C00197A109B048B3
:1029100088839983AA83BB839F77DF91CF91FF90B0
:10292000EF90DF90CF90BF90AF909F908F900895E1
:102930000E944F1408958AE491E00E944F14089574
:10294000A0E0B0E080934A0190934B01A0934C012A
:10295000B0934D010895A0E0B0E0E1EBF4E10C94F8
:10296000B117AE014B5F5F4FFA0161917191AF01F9
:102970008091B6039091B7030E94F114E2E00C94A9
:10298000CD170F931F93CF93DF93E091B603F09190
:10299000B703238121FF1BC08C01D0E0C0E0F80108
:1029A00081918F016091B6037091B703DB01189696
:1029B000ED91FC911997882331F00995892B79F3D2
:1029C000DFEFCFEFECCF8AE00995892B19F08FEF7D
:1029D0009FEF02C08D2F9C2FDF91CF911F910F9100
:1029E0000895ACE0B0E0E7EFF4E10C94A1177C01AE
:1029F0006B018A01FC0117821682838181FFBDC1B0
:102A0000CE0101964C01F7019381F60193FD85916A
:102A100093FF81916F01882309F4ABC1853239F4AA
:102A200093FD859193FF81916F01853229F4B70160
:102A300090E00E94D916E7CF512C312C20E02032B3
:102A4000A0F48B3269F030F4803259F0833269F4AB
:102A500020612CC08D3239F0803339F4216026C0DA
:102A60002260246023C0286021C027FD27C030EDEC
:102A7000380F3A3078F426FF06C0FAE05F9E300D3A
:102A80001124532E13C08AE0389E300D1124332EAA
:102A900020620CC08E3221F426FD6BC1206406C07A
:102AA0008C3611F4206802C0883641F4F60193FD9B
:102AB000859193FF81916F018111C1CF982F9F7DE7
:102AC0009554933028F40C5F1F4FFFE3F9830DC03A
:102AD000833631F0833771F0833509F05BC022C053
:102AE000F801808189830E5F1F4F44244394512C49
:102AF000540115C03801F2E06F0E711CF801A0807E
:102B0000B18026FF03C0652D70E002C06FEF7FEF3C
:102B1000C5012C870E94CE162C0183012C852F77AE
:102B2000222E17C03801F2E06F0E711CF801A08050
:102B3000B18026FF03C0652D70E002C06FEF7FEF0C
:102B4000C5012C870E94C3162C012C852068222EDB
:102B5000830123FC1BC0832D90E048165906B0F476
:102B6000B70180E290E00E94D9163A94F4CFF501C3
:102B700027FC859127FE81915F01B70190E00E94BB
:102B8000D91631103A94F1E04F1A5108411451040A
:102B900071F7E5C0843611F0893639F5F80127FF61
:102BA00007C060817181828193810C5F1F4F08C0D3
:102BB00060817181072E000C880B990B0E5F1F4FEF
:102BC0002F76722E97FF09C090958095709561952C
:102BD0007F4F8F4F9F4F2068722E2AE030E0A40174
:102BE0000E941117A82EA81844C0853729F42F7EFB
:102BF000B22E2AE030E025C0F22FF97FBF2E8F36AB
:102C0000C1F018F4883579F0B4C0803719F08837EE
:102C100021F0AFC02F2F2061B22EB4FE0DC08B2D3E
:102C20008460B82E09C024FF0AC09F2F9660B92E79
:102C300006C028E030E005C020E130E002C020E11D
:102C400032E0F801B7FE07C0608171818281938113
:102C50000C5F1F4F06C06081718180E090E00E5FC5
:102C60001F4FA4010E941117A82EA818FB2DFF7753
:102C70007F2E76FE0BC0372D3E7FA51450F474FED8
:102C80000AC072FC08C0372D3E7E05C0BA2C372D15
:102C900003C0BA2C01C0B52C34FF0DC0FE01EA0DF3
:102CA000F11D8081803311F4397E09C032FF06C0E6
:102CB000B394B39404C0832F867809F0B39433FDA2
:102CC00013C030FF06C05A2CB31418F4530C5B1811
:102CD000B32CB31468F4B70180E290E03C870E9403
:102CE000D916B3943C85F5CFB31410F43B1801C04A
:102CF000312C34FF12C0B70180E390E03C870E9482
:102D0000D9163C8532FF17C031FD03C088E790E03B
:102D100002C088E590E0B7010CC0832F867859F097
:102D200031FF02C08BE201C080E237FD8DE2B701C6
:102D300090E00E94D916A51438F4B70180E390E022
:102D40000E94D9165A94F7CFAA94F401EA0DF11D06
:102D50008081B70190E00E94D916A110F5CF3320F1
:102D600009F451CEB70180E290E00E94D9163A945E
:102D7000F6CFF7018681978102C08FEF9FEF2C96E7
:102D8000E2E10C94BD17FC01059061507040011008
:102D9000D8F7809590958E0F9F1F0895FC01615084
:102DA000704001900110D8F7809590958E0F9F1F6D
:102DB00008950F931F93CF93DF93FB01238121FD90
:102DC00003C08FEF9FEF28C022FF16C046815781B6
:102DD000248135814217530744F4A081B1819D01BC
:102DE0002F5F3F4F318320838C93268137812F5F64
:102DF0003F4F3783268310C0EB01092F182F008423
:102E0000F185E02D0995892BE1F68E819F81019650
:102E10009F838E83812F902FDF91CF911F910F91F0
:102E20000895FA01AA27283051F1203181F1E89460
:102E30006F936E7F6E5F7F4F8F4F9F4FAF4FB1E0AD
:102E40003ED0B4E03CD0670F781F891F9A1FA11DA8
:102E5000680F791F8A1F911DA11D6A0F711D811DA9
:102E6000911DA11D20D009F468943F912AE0269F6E
:102E700011243019305D3193DEF6CF010895462FCD
:102E80004770405D4193B3E00FD0C9F7F6CF462FAE
:102E90004F70405D4A3318F0495D31FD4052419317
:102EA00002D0A9F7EACFB4E0A695979587957795D4
:102EB0006795BA95C9F700976105710508959B015B
:102EC000AC010A2E06945795479537952795BA95E4
:102ED000C9F7620F731F841F951FA01D0895052E4B
:102EE00097FB1EF400940E94861757FD07D00E949E
:102EF0008D1107FC03D04EF40C9486175095409525
:102F0000309521953F4F4F4F5F4F08959095809595
:102F1000709561957F4F8F4F9F4F08950E94D817EE
:102F2000A59F900DB49F900DA49F800D911D11241D
:102F30000895B7FF0C948E170E948E17821B930B77
:102F400008952F923F924F925F926F927F928F924D
:102F50009F92AF92BF92CF92DF92EF92FF920F9328
:102F60001F93CF93DF93CDB7DEB7CA1BDB0B0FB632
:102F7000F894DEBF0FBECDBF09942A8839884888EF
:102F80005F846E847D848C849B84AA84B984C88485
:102F9000DF80EE80FD800C811B81AA81B981CE0F7C
:102FA000D11D0FB6F894DEBF0FBECDBFED01089561
:102FB000A29FB001B39FC001A39F700D811D11247A
:102FC000911DB29F700D811D1124911D0895F894DB
:022FD000FFCF31
:102FD20000004B000000000200000000C8040000D6
:102FE20000007F7F00000002000000008E0600004B
:102FF20000000101040002000000000200000000C5
:10300200C804000000000000000200000000C80424
:10301200000000000000BA03200001000000490384
:103022004E0354035C03320B320B320B320B320B66
:10303200320B890D320B320B320B7D0B840B320BB0
:103042004F0B3E0C320B320B320BB30BA50B320B78
:10305200570B760B320B320B320B990B8B0B320B5D
:10306200570B920D320B320B320B320B320B320BEF
:10307200430B370B5F0B320B320B320B320B320B23
:10308200570B320B320B0000000000000100000061
:10309200010000000000000100004572726F722002
:1030A200696E2077726974696E6720746F2073721B
:1030B200616D202D20746F6F2062696720616472D8
:1030C20065737321005374617274696E6720535281
:1030D200414D20746573742E2E2E0D005772697443
:1030E20065207068617365206572726F723A20653F
:1030F20078745F72616D5B2534645D203D202530FC
:103102003258202873686F756C6420626520253000
:103112003258290D0A0052657472696576616C2015
:103122007068617365206572726F723A2065787497
:103132005F72616D5B2534645D203D20253032581D
:10314200202873686F756C642062652025303258C0
:10315200290D0A005352414D207465737420636F28
:103162006D706C657465642077697468200A253413
:1031720064206572726F727320696E20777269744F
:103182006520706861736520616E64200A2534646D
:10319200206572726F727320696E20726574726933
:1031A2006576616C2070686173650D0A0A00200003
:1031B2003E00526573657400537461727400536308
:1031C2006F7265004D61696E204D656E7500506CC1
:1031D200617900506C6179696E672E2E2E005363FF
:1031E2006F72653A00526573657420686967687327
:1031F200636F7265730041726520796F7520737514
:1032020072653F004E6F005965730053656C6563CC
:103212007420506C61796572004C696E6B00536F5B
:103222006E69630057616C756967690053616D75FA
:1032320073002A00204E4557204849474853434FC0
:10324200524500506C617965723A0053636F726542
:0A325200733A0053636F7265730056
:00000001FF
