:100000000C94D3000C94F4000C94F4000C9489022A
:100010000C94F4000C94F4000C94F4000C94F40090
:100020000C94F4000C94F4000C94F4000C94F40080
:100030000C94F4000C94F4000C94F4000C94F40070
:100040000C94F4000C94F4000C94F4000C94F40060
:100050000C94F4000C94F4000C94F4000C94F40050
:100060000C94F4000C94F4000C94F4000C94F40040
:100070000C94F4000C94F4000C94F4000C94F40030
:100080000C94F4000C94F4000C94F4000C941E07EF
:100090000C94F4000C94F4000C94F4000C945705A8
:1000A0000C94F4000C94F4000C94F4000C94F40000
:1000B0000C94F4000C94F4000C94F4000C94F400F0
:1000C0000C94F4000C94F4000C94F4000C94F400E0
:1000D0000C94F4000C94F4000C94F4000C94F400D0
:1000E0000C94F4007605C805C805C805C805C80500
:1000F000C805C8057605C805C805C805C805C805EA
:10010000C805C8057805C805C805C805C805C805D7
:10011000C805C805C805C805C805C805C805C80577
:10012000C805C8057805C805C805C805C805C805B7
:10013000C805C805C805C805C805C805C805C80557
:10014000C805C805C405C805C805C805C805C8054B
:10015000C805C805A105C805C805C805C805C8055E
:10016000C805C805C805C805C805C805C805C80527
:10017000C805C8059505C805C805C805C805C8054A
:10018000C805C805B3050C9495050C94C4050C94DA
:10019000B3050C94C8050C94A1050C9478050C9437
:1001A00068020C94760511241FBECFEFD1E2DEBFAA
:1001B000CDBF00E00CBF12E0A0E0B2E0EAE6FBE158
:1001C00000E00BBF02C007900D92A63FB107D9F720
:1001D00023E0A6EFB2E001C01D92A531B207E1F71E
:1001E0000E9448020C94B30D0C94000084E092E04D
:1001F000909312038093110387E292E00E94C90A50
:100200002FEF87EA91E6215080409040E1F700C04F
:100210000000F2CF0E9498028BE090E00E948E09CD
:10022000EC018BE090E00E948E097C0181E090E07F
:100230009983888385E08A8388E48B8381E68C8335
:100240008CE68D838E838FE68F8384E092E090939B
:100250001203809311030F2EFAE3CF2EF2E0DF2E6C
:10026000F02D2FEF83ED90E3215080409040E1F797
:1002700000C00000C7010E940403892B01F5DF9232
:10028000CF920E94AF0AF70182810F900F908823CE
:1002900091F087010D5F1F4FC0E0D0E0F801819120
:1002A0008F0190E00E94C30A2196F701828190E0BD
:1002B000C817D9079CF38EE592E00E94C90AFFEFA8
:1002C00027EA81E6F15020408040E1F700C00000BD
:1002D000C8CF84E092E090931203809311030E94B0
:1002E00098020E94DE050E9446040E94E7030E94D5
:1002F0008A040E94F605E1E0F1E08081806180835C
:100300000E94A704FDCF84E092E0909312038093B3
:1003100011030E9498020E94E70380E090E00E948F
:100320000E042FEF87EA91E6215080409040E1F7DC
:1003300000C000008FE790E00E940E042FEF87EAD4
:1003400091E6215080409040E1F700C000008FEF1F
:1003500090E00E940E042FEF87EA91E62150804042
:100360009040E1F700C00000D8CF84E092E0909385
:100370001203809311030E9446040E948104882383
:1003800021F084E592E00E94C90A2FEF89EF90E006
:10039000215080409040E1F700C00000EECF0E9465
:1003A000DE0580E00E94E2052FEF87EA91E621500A
:1003B00080409040E1F700C000008FE70E94E20516
:1003C0002FEF87EA91E6215080409040E1F700C08E
:1003D00000008FEF0E94E2052FEF87EA91E621509F
:1003E00080409040E1F700C00000DBCF84E092E065
:1003F00090931203809311030E94A406FFCF84E020
:1004000092E090931203809311030E94F605C0E6D8
:10041000D2E00E940C069F938F93DF93CF930E94AC
:10042000AF0A0F900F900F900F90F3CF0E94DE0550
:100430000E9498020E94E7030E94F60580E090E087
:100440000E940403892BD1F7809100009091010054
:100450000497A1F7809103000E940B06EFCF84E080
:1004600092E090931203809311030E94DE05C0E096
:100470008C2F0E940B062FEF89EF90E021508040D7
:100480009040E1F700C00000CF5FCF3F89F7EFCF8A
:1004900060E074E284EF90E00E9450020E946901E3
:1004A00020E038E542E050E00E944C07215031093D
:1004B0003093C5002093C4008EE08093C200E1EC2D
:1004C000F0E08081806180838081886080830895EE
:1004D000E0ECF0E0908195FFFDCF8093C600089599
:1004E000E0ECF0E080818823ECF38091C60090E09E
:1004F00008958EBD0DB407FEFDCF089580E00E94E3
:1005000079028EB5089587E884B981E58CBD2F9A6C
:1005100008951F920F920FB60F9211248F9381E0CE
:100520008093F6028F910F900FBE0F901F90189539
:1005300080E00E94B403F894E9E6F0E080818062F4
:10054000808380818F7E8083EA9A789440E064E0A3
:100550008BE20E948C0340E664E680E60E948C03F6
:1005600041E061E08BE20E948C030895CF92DF921C
:10057000EF92FF921F93CF93DF936C0182E192E0A1
:100580009093120380931103F60160817181769537
:100590006795769567957695679581E30E946D03DB
:1005A000F60140814295440F407E68EE82E30E944E
:1005B0008C03F60142816FE085E30E948C03F60113
:1005C00082818823A9F07601F3E0EF0EF11C16E397
:1005D000C0E0D0E0F70161917F01812F0E946D039F
:1005E00021961F5FF601828190E0C817D90794F326
:1005F00081E80E94810380E0DF91CF911F91FF90FD
:10060000EF90DF90CF900895CF92DF92EF92FF921C
:100610001F93CF93DF936C019091F6029923E9F138
:1006200081E60E945B03C82F82E60E945B032C2FA9
:1006300030E0220F331F220F331F220F331F82950A
:1006400086958770282BF6013183208385E60E94EA
:100650005B038F70F60182838823A9F07601F3E0B3
:10066000EF0EF11C16E6C0E0D0E0812F0E945B0384
:10067000F70181937F0121961F5FF601228130E00F
:10068000C217D30794F31092F60240E061E08CE2C7
:100690000E948C0380E090E002C081E090E0DF9156
:1006A000CF911F91FF90EF90DF90CF9008952F98FA
:1006B00008952F9A0895CF93C82F0E94570383E07F
:1006C0000E9479028C2F0E9479020E947E02C82F1C
:1006D0000E9459038C2FCF910895CF93DF93D82F89
:1006E000C62F0E94570382E00E9479028D2F0E943C
:1006F00079028C2F0E9479020E945903DF91CF91D9
:100700000895CF93C82F0E9457038C2F0E9479021F
:100710000E945903CF9108951F93CF93DF93182F11
:10072000D62FC42F0E94570385E00E947902812FA3
:100730000E9479028D2F0E9479028C2F0E947902EB
:100740000E945903DF91CF911F9108950E94570392
:1007500080EC0E9479020E9459038FEF9FE201977B
:10076000F1F700C000000895CF93C82F0E948302C4
:100770000E94A6038EE00E945B03807E803831F0E9
:1007800084E792E00E94C90A81E011C06C2F8FE0DB
:100790000E946D038EE00E945B03807E8C1731F017
:1007A00085EA92E00E94C90A81E001C080E0CF9111
:1007B0000895CF930E94570380EA0E9479020E9415
:1007C0007E02C82F0E9459038C2FCF910895A0E874
:1007D000B0E08C9182608C938C918E7F8C93E1E859
:1007E000F0E08081806180838081886080838C914B
:1007F00080688C938C9180688C93259A80818B7F04
:10080000808380818260808380818160808388E8AA
:1008100093E190938700809386000895992384F153
:100820008F3F910509F07CF5BC01072E000C880B69
:10083000990B0E94950820E030E04FE753E40E94B6
:10084000F20720E030E046E953E40E94210920E06D
:1008500030E041E653E40E9486070E946408613E4E
:10086000710538F06E3082E0780728F06DE072E0B4
:1008700002C061EE70E07093890060938800089573
:1008800061EE70E0EFCF6DE072E0ECCFAAE7B0E090
:100890008C9180688C93ECE7F0E080818F7B808383
:1008A00080818F77808380818E7F808380818D7F20
:1008B000808380818B7F80838081877F808380811C
:1008C0008F7E8083EBE7F0E08081877F80838C914F
:1008D00084608C938C9182608C938C9181608C93DA
:1008E0008C918F7D8C930895EAE7F0E0808180649D
:1008F0008083808186FDFDCF809178009091790082
:1009000008950E94740421E08436910508F020E0E7
:10091000822F08950E94E7038BE090E00E948E09E9
:100920009093FC028093FB028BE090E00E948E0982
:100930009093FA028093F9021092F8021092F70253
:1009400080E090E00E940E040E9495060895CF93E7
:100950008091FB029091FC020E940403892B39F5DF
:10096000E091FB02F091FC0280819181823091053F
:10097000B9F018F4892B39F01AC08430910541F090
:10098000079789F014C0838190E00E940E040FC085
:10099000C3818C2F0E940B068C2F0E94890607C0F2
:1009A0000E94980604C01092F8021092F7020E946A
:1009B0008104882321F01092F8021092F702E0914E
:1009C000F902F091FA0286E090E09183808382E060
:1009D00082839091F7028091F80293838483CF0100
:1009E0000E94B602CF9108958CE08093B8008FEFFB
:1009F0008093BB0084E08093BC0008958091BC008C
:100A000081700895ECEBF0E0808180FDFDCF809156
:100A100020020895DC01ECEBF0E0908190FDFDCF29
:100A20006093FF028C918093000380FD0CC06230C4
:100A300050F0FD013196A1E0B3E081E091919D93EA
:100A40008F5F6813FBCF1092FD0288EF8093200226
:100A500085EA8093BC000895ECEBF0E0808180FD96
:100A6000FDCF1092FD0288EF8093200285EA8093EB
:100A7000BC000895ECEBF0E0208120FDFDCF20913B
:100A8000FD0220FF10C0662371F0E0E0F3E0A82F24
:100A9000B92F6150862F90E08F5F9C4F21912D934D
:100AA000E817F907D9F78091FD02817008951F9228
:100AB0000F920FB60F9211240BB60F922F933F9304
:100AC0008F939F93AF93BF93EF93FF93E091B90000
:100AD0008E2F90E0FC013897E135F10508F058C001
:100AE0008827EE58FF4F8F4F0C946E071092FE022E
:100AF000E091FE028091FF02E81770F481E08E0F12
:100B00008093FE02F0E0E050FD4F80818093BB00B7
:100B100085E88093BC0043C08091FD028160809392
:100B2000FD0284E98093BC003AC0E091FE0281E0BE
:100B30008E0F8093FE028091BB00F0E0E050FD4FED
:100B400080832091FE0230E08091FF0290E00197C7
:100B50002817390724F485EC8093BC0020C085E871
:100B60008093BC001CC08091BB00E091FE02F0E0CD
:100B7000E050FD4F80838091FD0281608093FD02F3
:100B800084E98093BC000BC085EA8093BC0007C059
:100B90008091B9008093200284E08093BC00FF9193
:100BA000EF91BF91AF919F918F913F912F910F90B6
:100BB0000BBE0F900FBE0F901F90189578940E9457
:100BC000F4040895CF93DF9300D0CDB7DEB790E55E
:100BD00099831A828B8363E0CE0101960E940A05F5
:100BE0000F900F900F90DF91CF910895E2E0F1E028
:100BF000808180618083109207018CE380930101E2
:100C000080818F7B80838AE68A95F1F700C080819E
:100C10008064808308950895E2E0F1E080818F7D13
:100C200080838081877F80838AE68A95F1F700C080
:100C3000A6E0B1E02C918081886080838AE68A9565
:100C4000F1F700C08C9190819062908390E0922B9C
:100C50000895CF93E1E0F1E080818D7F8083C2E34E
:100C600084E60E94E205C150D9F70E940C068093E9
:100C700006038FE891E00197F1F700C00000E1E082
:100C8000F1E0808182608083C2E384E60E94E20515
:100C9000C150D9F70E940C06809306031F921F9241
:100CA00080ED92E09F938F930E94AF0A809106039C
:100CB0001F928F938AED92E09F938F930E94AF0AC9
:100CC0008DB79EB708960FB6F8949EBF0FBE8DBF26
:100CD0008091060381110E942906CF910895E82F83
:100CE0004091060350E022273327241B350BA1E84F
:100CF000B0E80E9476079C01220F232F221F330B9E
:100D00003195E29FC001E39F900D1124840F951F40
:100D100008950E946F06909305038093040308953D
:100D200080910403909105030895819A899A08950A
:100D3000899A2FEF80E792E0215080409040E1F7C0
:100D400000C000008998089584EE92E00E94C90ACC
:100D5000F894E1E7F0E0808181608083A0E9B0E071
:100D60008C918E7F8C938C9182608C93E1E9F0E082
:100D70008081886080838081806180838C918F7B7B
:100D80008C938C9180688C9380818160808380813A
:100D90008D7F808380818460808382EE94E0909355
:100DA00097008093960078940895CF92DF92EF9207
:100DB000FF92CF93DF930E94900620910903309118
:100DC0000A03EC01C21BD30B809107039091080327
:100DD0008C0F9D1F90930803809307036091070376
:100DE0007091080380E090E00E9493082AE037EDBC
:100DF00043EA5CE30E9421096B017C01BE0180E0B3
:100E000090E00E9493089B01AC01C701B6010E94CB
:100E100086070E9464087F936F938DEE92E09F9304
:100E20008F930E94AF0A0F900F900F900F90DF9159
:100E3000CF91FF90EF90DF90CF9008951F920F9287
:100E40000FB60F9211240BB60F922F933F934F932F
:100E50005F936F937F938F939F93AF93BF93EF9322
:100E6000FF930E940C0690930A03809309030E944B
:100E7000D506FF91EF91BF91AF919F918F917F9197
:100E80006F915F914F913F912F910F900BBE0F90FB
:100E90000FBE0F901F901895A1E21A2EAA1BBB1B24
:100EA000FD010DC0AA1FBB1FEE1FFF1FA217B30736
:100EB000E407F50720F0A21BB30BE40BF50B661F4C
:100EC000771F881F991F1A9469F760957095809510
:100ED00090959B01AC01BD01CF010895EE0FFF1F5E
:100EE000881F8BBF0790F691E02D1994A29FB00147
:100EF000B39FC001A39F700D811D1124911DB29F4E
:100F0000700D811D1124911D08955058BB27AA27EB
:100F10000E949D070C94E7080E94D90838F00E94AF
:100F2000E00820F039F49F3F19F426F40C94D60819
:100F30000EF4E095E7FB0C94D008E92F0E94F80826
:100F400058F3BA17620773078407950720F079F4FE
:100F5000A6F50C941A090EF4E0950B2EBA2FA02DCD
:100F60000B01B90190010C01CA01A0011124FF2756
:100F7000591B99F0593F50F4503E68F11A16F04051
:100F8000A22F232F342F4427585FF3CF4695379550
:100F90002795A795F0405395C9F77EF41F16BA0B15
:100FA000620B730B840BBAF09150A1F0FF0FBB1FC3
:100FB000661F771F881FC2F70EC0BA0F621F731F0C
:100FC000841F48F4879577956795B795F7959E3F69
:100FD00008F0B0CF9395880F08F09927EE0F9795FA
:100FE000879508950E9406080C94E7080E94E0087F
:100FF00058F00E94D90840F029F45F3F29F00C9482
:10100000D00851110C941B090C94D6080E94F808C2
:1010100068F39923B1F3552391F3951B550BBB2727
:10102000AA2762177307840738F09F5F5F4F220F6C
:10103000331F441FAA1FA9F335D00E2E3AF0E0E863
:1010400032D091505040E695001CCAF72BD0FE2FAD
:1010500029D0660F771F881FBB1F26173707480741
:10106000AB07B0E809F0BB0B802DBF01FF279358F9
:101070005F4F3AF09E3F510578F00C94D0080C94E5
:101080001B095F3FE4F3983ED4F386957795679507
:10109000B795F7959F5FC9F7880F911D969587952E
:1010A00097F90895E1E0660F771F881FBB1F62174D
:1010B00073078407BA0720F0621B730B840BBA0B0B
:1010C000EE1F88F7E09508950E94000988F09F5769
:1010D00098F0B92F9927B751B0F0E1F0660F771F5C
:1010E000881F991F1AF0BA95C9F714C0B13091F052
:1010F0000E941A09B1E008950C941A09672F782FFD
:101100008827B85F39F0B93FCCF386957795679516
:10111000B395D9F73EF490958095709561957F4F82
:101120008F4F9F4F0895E89409C097FB3EF4909528
:101130008095709561957F4F8F4F9F4F9923A9F0B0
:10114000F92F96E9BB279395F6958795779567953F
:10115000B795F111F8CFFAF4BB0F11F460FF1BC083
:101160006F5F7F4F8F4F9F4F16C0882311F096E916
:1011700011C0772321F09EE8872F762F05C06623C4
:1011800071F096E8862F70E060E02AF09A95660F7D
:10119000771F881FDAF7880F9695879597F9089536
:1011A00097F99F6780E870E060E008959FEF80EC1A
:1011B000089500240A9416161706180609060895BD
:1011C00000240A9412161306140605060895092E23
:1011D0000394000C11F4882352F0BB0F40F4BF2B92
:1011E00011F460FF04C06F5F7F4F8F4F9F4F0895D2
:1011F00057FD9058440F551F59F05F3F71F04795C8
:10120000880F97FB991F61F09F3F79F087950895AC
:10121000121613061406551FF2CF4695F1DF08C0CB
:10122000161617061806991FF1CF869571056105E8
:1012300008940895E894BB2766277727CB0197F990
:1012400008950E9434090C94E7080E94D90838F0E8
:101250000E94E00820F0952311F00C94D0080C9423
:10126000D60811240C941B090E94F80870F3959F6E
:10127000C1F3950F50E0551F629FF001729FBB278D
:10128000F00DB11D639FAA27F00DB11DAA1F649F29
:101290006627B00DA11D661F829F2227B00DA11DDC
:1012A000621F739FB00DA11D621F839FA00D611D62
:1012B000221F749F3327A00D611D231F849F600D83
:1012C000211D822F762F6A2F11249F5750409AF0AC
:1012D000F1F088234AF0EE0FFF1FBB1F661F771F38
:1012E000881F91505040A9F79E3F510580F00C9403
:1012F000D0080C941B095F3FE4F3983ED4F3869525
:1013000077956795B795F795E7959F5FC1F7FE2BA2
:10131000880F911D9695879597F908950F931F93C0
:10132000CF93DF938230910510F482E090E0E0915A
:101330000D03F0910E0320E030E0A0E0B0E0309724
:1013400019F1408151810281138148175907C8F072
:101350008417950769F4109731F012960C93129741
:1013600013961C9327C000930D0310930E0322C005
:101370002115310519F04217530718F49A01BD01E0
:10138000EF01DF01F801DBCF21153105F9F0281B52
:10139000390B2430310580F48A819B8161157105F8
:1013A00021F0FB019383828304C090930E0380930A
:1013B0000D03FE01329644C0FE01E20FF31F81933C
:1013C000919322503109398328833AC020910B032D
:1013D00030910C03232B41F42091230230912402FD
:1013E00030930C0320930B032091210230912202B1
:1013F0002115310541F42DB73EB74091250250919A
:101400002602241B350BE0910B03F0910C03E2172D
:10141000F307A0F42E1B3F0B2817390778F0AC0117
:101420004E5F5F4F2417350748F04E0F5F1F5093F4
:101430000C0340930B038193919302C0E0E0F0E032
:10144000CF01DF91CF911F910F910895CF93DF933B
:10145000009709F481C0FC01329713821282A09197
:101460000D03B0910E03109781F420813181820F1A
:10147000931F20910B0330910C032817390751F566
:10148000F0930C03E0930B0367C0ED0120E030E024
:10149000CE17DF0740F44A815B819E01411551055B
:1014A000F1F0EA01F5CFD383C28340815181840FEB
:1014B000951FC817D90759F488819981840F951F02
:1014C0000296918380838A819B81938382832115F5
:1014D000310529F4F0930E03E0930D033DC0E901BB
:1014E000FB83EA8349915991C40FD51FEC17FD077F
:1014F00061F480819181840F951F0296E90199839F
:101500008883828193819B838A83E0E0F0E0129656
:101510008D919C911397009719F0FD01DC01F7CF95
:101520008D919C9111979D012E5F3F4F820F931FCC
:1015300020910B0330910C032817390769F4309779
:1015400029F410920E0310920D0302C0138212822E
:10155000B0930C03A0930B03DF91CF910895CF9329
:10156000DF93CDB7DEB7AE014A5F5F4FFA016191FD
:101570007191AF0180911103909112030E94F90AB9
:10158000DF91CF91089560911103709112030C9433
:10159000190D0F931F93CF93DF93E0911103F091F7
:1015A0001203238121FF1BC08C01D0E0C0E0F801B1
:1015B00081918F016091110370911203DB011896E4
:1015C000ED91FC911997882331F01995892B79F3C6
:1015D000DFEFCFEFECCF8AE01995892B19F08FEF71
:1015E0009FEF02C08D2F9C2FDF91CF911F910F9104
:1015F00008952F923F924F925F926F927F928F92B7
:101600009F92AF92BF92CF92DF92EF92FF920F9391
:101610001F93CF93DF93CDB7DEB72B970FB6F89418
:10162000DEBF0FBECDBF6C017B018A01FC011782BA
:101630001682838181FFCCC1CE0101963C01F60167
:101640009381F70193FD859193FF81917F01882319
:1016500009F4BAC1853239F493FD859193FF8191E4
:101660007F01853229F4B60190E00E94190DE7CF81
:10167000912C212C312CFFE1F315D8F08B3279F02D
:1016800038F4803279F08332A1F4232D20611DC01B
:101690008D3261F0803369F4232D216016C0832DD3
:1016A0008260382EE32DE4603E2E2AC0F32DF860D0
:1016B0001DC037FC2DC020ED280F2A3040F08E329F
:1016C000B9F436FC81C1232D2064322E19C036FEB8
:1016D00006C08AE0989E200D1124922E11C0EAE0E7
:1016E0002E9E200D1124222EF32DF0623F2E08C0D5
:1016F0008C3621F4832D8068382E02C0883641F460
:10170000F70193FD859193FF81917F018111B3CF03
:10171000982F9F7D9554933028F40C5F1F4F9FE3C3
:1017200099830DC0833631F0833771F0833509F02A
:1017300059C021C0F801808189830E5F1F4F882422
:101740008394912C530113C02801F2E04F0E511CD9
:10175000F801A080B18036FE03C0692D70E002C0A0
:101760006FEF7FEFC5010E940E0D4C018201F32D3A
:10177000FF773F2E16C0280122E0420E511CF801CF
:10178000A080B18036FE03C0692D70E002C06FEF0B
:101790007FEFC5010E94030D4C01F32DF0683F2E31
:1017A000820133FC1BC0822D90E088169906B0F4AC
:1017B000B60180E290E00E94190D2A94F4CFF50161
:1017C00037FC859137FE81915F01B60190E00E9460
:1017D000190D21102A9421E0821A91088114910494
:1017E00071F7E8C0843611F0893641F5F80137FE0B
:1017F00007C060817181828193810C5F1F4F08C097
:1018000060817181072E000C880B990B0E5F1F4FB2
:10181000F32DFF763F2E97FF09C090958095709528
:1018200061957F4F8F4F9F4FF0683F2E2AE030E049
:10183000A3010E94550D882E861845C0853731F4C6
:10184000232D2F7EB22E2AE030E025C0932D997FE4
:10185000B92E8F36C1F018F4883579F0B5C08037CD
:1018600019F0883721F0B0C0E92FE061BE2EB4FE38
:101870000DC0FB2DF460BF2E09C034FE0AC0292F15
:101880002660B22E06C028E030E005C020E130E03E
:1018900002C020E132E0F801B7FE07C0608171812B
:1018A000828193810C5F1F4F06C06081718180E04F
:1018B00090E00E5F1F4FA3010E94550D882E8618E1
:1018C000FB2DFF773F2E36FE0DC0232D2E7FA22E3F
:1018D000891458F434FE0BC032FC09C0832D8E7E6F
:1018E000A82E05C0B82CA32C03C0B82C01C0B92C5D
:1018F000A4FE0FC0FE01E80DF11D8081803321F4AC
:101900009A2D997EA92E09C0A2FE06C0B394B39465
:1019100004C08A2D867809F0B394A3FC11C0A0FE00
:1019200006C0B21488F4280C922C9B180EC0B21476
:1019300060F4B60180E290E00E94190DB394F7CFF5
:10194000B21418F42B1802C0982C212CA4FE10C03D
:10195000B60180E390E00E94190DA2FE17C0A1FC21
:1019600003C088E790E002C088E590E0B6010CC0B3
:101970008A2D867859F0A1FE02C08BE201C080E278
:10198000A7FC8DE2B60190E00E94190D891438F48D
:10199000B60180E390E00E94190D9A94F7CF8A94E3
:1019A000F301E80DF11D8081B60190E00E94190D50
:1019B0008110F5CF222009F442CEB60180E290E0FA
:1019C0000E94190D2A94F6CFF6018681978102C0F4
:1019D0008FEF9FEF2B960FB6F894DEBF0FBECDBFF3
:1019E000DF91CF911F910F91FF90EF90DF90CF90FB
:1019F000BF90AF909F908F907F906F905F904F902F
:101A00003F902F900895FC010590615070400110A7
:101A1000D8F7809590958E0F9F1F0895FC01615017
:101A2000704001900110D8F7809590958E0F9F1F00
:101A300008950F931F93CF93DF93FB01238121FD23
:101A400003C08FEF9FEF2CC022FF16C04681578145
:101A5000248135814217530744F4A081B1819D014F
:101A60002F5F3F4F318320838C93268137812F5FF7
:101A70003F4F3783268314C08B01EC01FB010084A8
:101A8000F185E02D1995892BE1F6D80116968D91F7
:101A90009C911797019617969C938E931697CE015B
:101AA000DF91CF911F910F910895FA01AA27283055
:101AB00051F1203181F1E8946F936E7F6E5F7F4F1B
:101AC0008F4F9F4FAF4FB1E03ED0B4E03CD0670F97
:101AD000781F891F9A1FA11D680F791F8A1F911DEA
:101AE000A11D6A0F711D811D911DA11D20D009F43A
:101AF00068943F912AE0269F11243019305D31937C
:101B0000DEF6CF010895462F4770405D4193B3E064
:101B10000FD0C9F7F6CF462F4F70405D4A3318F00B
:101B2000495D31FD4052419302D0A9F7EACFB4E0BC
:101B3000A6959795879577956795BA95C9F7009774
:101B40006105710508959B01AC010A2E0694579515
:101B5000479537952795BA95C9F7620F731F841F6C
:0A1B6000951FA01D0895F894FFCF13
:101B6A000024F400000000020000000068020000E7
:101B7A0000000000000200000000680200000000EF
:101B8A00F800001503200048656C6C6F2066726FC0
:101B9A006D206E6F646520320D004E6F64652032D1
:101BAA00207265636569766564206D657373616724
:101BBA00653A2000636F6C6C6973696F6E200D0063
:101BCA00656E636F6465722076616C75653A20256F
:101BDA00640D0A004D435032353135206973204E69
:101BEA004F5420696E20636F6E66696775726174FF
:101BFA00696F6E206D6F646520616674657220720C
:101C0A0065736574004D4350323531352069732050
:101C1A004E4F5420696E20636F7272656374206D33
:101C2A006F646520616674657220726573657400FD
:101C3A004D41583A2025640D0A004D494E3A202557
:101C4A00640D0A00696E20696E69740D00753A2088
:061C5A0025750D0A0000D3
:00000001FF
