:100000000C94D3000C94F4000C94F4000C94500164
:100010000C94F4000C94F4000C94F4000C94F40090
:100020000C94F4000C94F4000C94F4000C94F40080
:100030000C94F4000C94F4000C94F4000C94F40070
:100040000C94F4000C94F4000C94F4000C94F40060
:100050000C94F4000C94F4000C94F4000C94F40050
:100060000C94F4000C94F4000C94F4000C94F40040
:100070000C94F4000C94F4000C94F4000C94F40030
:100080000C94F4000C94F4000C94F4000C944807C5
:100090000C94F4000C94F4000C94F4000C94B80448
:1000A0000C94F4000C94F4000C94F4000C94F40000
:1000B0000C94F4000C9467030C94F4000C94F4007A
:1000C0000C94F4000C94F4000C94F4000C94F400E0
:1000D0000C94F4000C94F4000C94F4000C94F400D0
:1000E0000C94F400D70429052905290529052905BB
:1000F00029052905D70429052905290529052905E3
:1001000029052905D90429052905290529052905D0
:10011000290529052905290529052905290529056F
:1001200029052905D90429052905290529052905B0
:10013000290529052905290529052905290529054F
:100140002905290525052905290529052905290543
:100150002905290502052905290529052905290556
:10016000290529052905290529052905290529051F
:1001700029052905F6042905290529052905290543
:100180002905290514050C94D9040C9402050C9436
:1001900014050C94F6040C9429050C94D7040C94C3
:1001A0002F010C94250511241FBECFEFD1E2DEBF35
:1001B000CDBF00E00CBF12E0A0E0B2E0EEEEFBE14C
:1001C00000E00BBF02C007900D92A439B107D9F728
:1001D00022E0A4E9B2E001C01D92AF3BB207E1F713
:1001E0000E94F6000C94F50D0C9400006091000242
:1001F0007091010280910202909103020E94170106
:1002000084E092E09093BC028093BB020E945F0165
:100210000E943F050E9424030E94A7020E947E03C1
:100220000E94DB050E9470070E94C203FDCF20E000
:1002300038E542E050E00E94A30721503109309395
:10024000C5002093C4008EE08093C200E1ECF0E092
:100250008081806180838081886080830895E0EC64
:10026000F0E0908195FFFDCF8093C6000895E0EC0B
:10027000F0E080818823ECF38091C60090E008953F
:100280008EBD0DB407FEFDCF089580E00E944001B1
:100290008EB5089587E884B981E58CBD2F9A0895BD
:1002A0001F920F920FB60F9211248F9381E08093CB
:1002B00094028F910F900FBE0F901F90189580E0C1
:1002C0000E947402F894E9E6F0E080818062808305
:1002D00080818F7E8083EA9A789440E064E08BE2AC
:1002E0000E944C0240E664E680E60E944C0241E037
:1002F00061E08BE20E944C020895EF92FF920F930F
:100300001F93CF93DF937C0182E192E09093BC0234
:100310008093BB02F7016081718176956795769530
:1003200067957695679581E30E942D02F7014081DC
:100330004295440F407E68EE82E30E944C02F70132
:1003400042816FE085E30E944C02F701828188239D
:1003500099F087010D5F1F4FC0E0D0E0F801619177
:100360008F018C2F8A5C0E942D022196F701228139
:1003700030E0C217D30794F381E80E94410280E085
:10038000DF91CF911F910F91FF90EF900895EF9221
:10039000FF920F931F93CF93DF937C019091940270
:1003A0009923E1F181E60E941B02C82F82E60E9498
:1003B0001B02282F2295269527708C2F90E0880FFE
:1003C000991F880F991F880F991F822BF70191831E
:1003D000808385E60E941B028F70F7018283882349
:1003E00099F087010D5F1F4FC0E0D0E08C2F8A5934
:1003F0000E941B02F80181938F012196F70122814F
:1004000030E0C217D30794F31092940240E061E009
:100410008CE20E944C0280E090E002C081E090E01B
:10042000DF91CF911F910F91FF90EF9008952F983A
:1004300008952F9A0895CF93C82F0E94170283E042
:100440000E9440018C2F0E9440010E944501C82F4C
:100450000E9419028C2FCF910895CF93DF93D82F4C
:10046000C62F0E94170282E00E9440018D2F0E9439
:1004700040018C2F0E9440010E941902DF91CF9110
:100480000895CF93C82F0E9417028C2F0E9440011D
:100490000E941902CF9108951F93CF93DF93182FD5
:1004A000D62FC42F0E94170285E00E944001812FA1
:1004B0000E9440018D2F0E9440018C2F0E9440011C
:1004C0000E941902DF91CF911F9108950E94170297
:1004D00080EC0E9440010E9419028FEF9FE2019779
:1004E000F1F700C000000895CF93C82F0E944A0181
:1004F0000E9466028EE00E941B02807E803831F0EE
:100500008CE292E00E941E0B81E011C06C2F8FE004
:100510000E942D028EE00E941B02807E8C1731F01B
:100520008DE592E00E941E0B81E001C080E0CF913A
:100530000895CF930E94170280EA0E9440010E9412
:100540004501C82F0E9419028C2FCF910895A0E871
:10055000B0E08C9182608C938C918E7F8C93E1E8DB
:10056000F0E08081806180838081886080838C91CD
:1005700080688C938C9180688C93259A80818B7F86
:10058000808380818260808380818160808388E82D
:1005900093E190938700809386000895CF93DF9333
:1005A0009923ECF18F3F910509F0E4F5BC01990F17
:1005B000880B990B0E94E40820E030E04FE753E4F9
:1005C0000E943A0820E030E046E953E40E947009B6
:1005D00020E030E041E653E40E94CE070E94B308D9
:1005E000C62FD72F7F936F9388E892E09F938F93C6
:1005F0000E940A0B0F900F900F900F90C13ED105F3
:1006000038F0CE3082E0D80728F0CDE0D2E002C04A
:10061000C1EED0E0D0938900C093880012C0C1EE33
:10062000D0E002C0CDE0D2E0DF93CF9388E892E043
:100630009F938F930E940A0B0F900F900F900F9033
:10064000E0CFDF91CF910895AAE7B0E08C91806868
:100650008C93ECE7F0E080818F7B808380818F77C3
:10066000808380818E7F808380818D7F8083808165
:100670008B7F80838081877F808380818F7E808352
:10068000EBE7F0E08081877F80838C9184608C939E
:100690008C9182608C938C9181608C938C918F7DF6
:1006A0008C930895EAE7F0E0808180648083808104
:1006B00086FDFDCF809178009091790008950E9489
:1006C000520321E00F9708F020E0822F08951F9237
:1006D0000F920FB60F9211248F939F9380919E02D9
:1006E00090919F02019690939F0280939E029F910A
:1006F0008F910F900FBE0F901F9018950E94A70228
:10070000F894A0EAB0E08C918E7F8C938C918260FB
:100710008C93E1EAF0E08081886080838081806151
:1007200080838C918F7B8C938C9180688C9380815B
:100730008160808380818D7F8083808184608083DD
:1007400085E39CE09093A7008093A60078948BE0CB
:1007500090E00E94DD099093A3028093A2028BE0B7
:1007600090E00E94DD099093A1028093A002109274
:100770009F0210929E0280E090E00E94CE020E94B2
:10078000350608958091A2029091A3020E94C701AC
:10079000892B09F052C0A091A202B091A302139636
:1007A0009C911397E8E9F2E0908314962C911497AA
:1007B000218315963C911597328316968C91169746
:1007C000838317964C9144839923C9F010929F021A
:1007D00010929E028091290290912A02A0912B02F0
:1007E0008093950290939602A093970281E0809364
:1007F0009D02E2E7F0E08081816080831EC02223B9
:1008000081F010929D02109297021092960210921F
:100810009F0210929E02E2E7F0E080818E7F80834B
:100820000CC0332319F00E94380607C090E00E94E4
:10083000CE0280919C020E949D0780919D02882398
:1008400059F10E945F03882351F010929D02E2E764
:10085000F0E080818E7F808381E08093950290918B
:100860009E0280919F02A5E9B2E011969C93119798
:1008700012968C931297E091A002F091A10221E0D0
:1008800030E03183208323E022832C9123839483DF
:100890008583CF010E947D0108958CE08093B8008C
:1008A0008FEF8093BB0084E08093BC00089580911B
:1008B000BC0081700895ECEBF0E0808180FDFDCFFD
:1008C000809120020895CF93DF93EC01ECEBF0E0F0
:1008D000908190FDFDCF6093A60298819093A7022E
:1008E00090FD13C0623088F0FE013196A8EAB2E0B4
:1008F0006250262F30E02E5F3F4FCE01820F931FB4
:1009000021912D93E817F907D9F71092A40288EFE7
:100910008093200285EA8093BC00DF91CF910895F7
:10092000ECEBF0E0808180FDFDCF1092A40288EF17
:100930008093200285EA8093BC000895ECEBF0E000
:10094000208120FDFDCF2091A40220FF0DC0662351
:1009500059F027EA32E0A82FB92FF90181918D9340
:100960008E2F821B8617D0F38091A4028170089588
:100970001F920F920FB60F9211240BB60F922F9366
:100980003F938F939F93AF93BF93EF93FF93E09128
:10099000B9008E2F90E0FC013897E135F10508F0A1
:1009A00058C08827EE58FF4F8F4F0C94C507109200
:1009B000A502E091A5028091A602E81770F481E0FB
:1009C0008E0F8093A502F0E0E955FD4F8081809362
:1009D000BB0085E88093BC0043C08091A402816085
:1009E0008093A40284E98093BC003AC0E091A50200
:1009F00081E08E0F8093A5028091BB00F0E0E95565
:100A0000FD4F80832091A50230E08091A60290E006
:100A100001972817390724F485EC8093BC0020C087
:100A200085E88093BC001CC08091BB00E091A502CA
:100A3000F0E0E955FD4F80838091A40281608093AE
:100A4000A40284E98093BC000BC085EA8093BC00BB
:100A500007C08091B9008093200284E08093BC009D
:100A6000FF91EF91BF91AF919F918F913F912F9106
:100A70000F900BBE0F900FBE0F901F901895F8941B
:100A80000E944D0478940895CF93DF9300D0CDB7A2
:100A9000DEB790E599831A828B8363E0CE010196DD
:100AA0000E9463048FE891E00197F1F700C0000015
:100AB0000F900F900F90DF91CF910895E2E0F1E059
:100AC00080818F7B80838FE193E00197F1F700C0F5
:100AD00000008081806480830895009741F0019731
:100AE00059F4E2E0F1E08081826080830895E2E0E1
:100AF000F1E080818D7F80830895E2E0F1E08081E4
:100B00008F7D80838081877F808385ED8A95F1F753
:100B10000000A6E0B1E02C9180818860808385EDA3
:100B20008A95F1F700008C9190819062908390E01B
:100B3000922B089580E090E00E946D0580E50E9470
:100B400044052FEF8FE19EE4215080409040E1F773
:100B500000C0000080E00E9444050E945E050E94E3
:100B60007D059093AC028093AB028FE891E00197F2
:100B7000F1F700C0000081E090E00E946D0580E583
:100B80000E9444059FEF2FE18EE491502040804069
:100B9000E1F700C000000E947D059093AE028093B3
:100BA000AD028FE891E00197F1F700C0000080E00E
:100BB0000E9444050895E1E0F1E080818061808336
:100BC000A2E0B1E08C9180618C938081826080830F
:100BD000808180628083808188608083808180645E
:100BE00080830E945E050E949A0508950E94440534
:100BF0000895CF93DF93EC0199238CF480E090E08B
:100C00000E946D05CE01DD2324F4882799278C1BD3
:100C10009D0B893C91059CF0C8ECD0E010C081E0B0
:100C200090E00E946D05CE01DD2324F488279927EA
:100C30008C1B9D0B893C910514F0C8ECD0E0CE01D3
:100C4000DD2324F4882799278C1B9D0B0E944405E3
:100C5000DF91CF9108958091AD029091AE020895F9
:100C60008091AB029091AC020895819A8998089581
:100C7000899A2FEF80E792E0215080409040E1F781
:100C800000C00000899808954F925F926F927F9202
:100C90008F929F92AF92BF92CF92DF92EF92FF928C
:100CA000CF93DF930E947D055C010E942B06EC012F
:100CB0006091210270912202072E000C880B990B83
:100CC0000E94E4086B017C01B501BB0C880B990BF9
:100CD0000E94E4084B015C01BE01DD0F880B990BFB
:100CE0000E94E4089B01AC0160E070E08FE793E4B0
:100CF0000E943A089B01AC01C501B4010E94700931
:100D00009B01AC01C701B6010E94CD070E94AC084F
:100D10006B017C018091B1029091B2028C0D9D1DFE
:100D20009093B2028093B1022AE0C216D10424F457
:100D30001092B2021092B102A090B102B090B20231
:100D4000C091AF02D091B002B6010D2C000C880BFF
:100D5000990B0E94E40820E030E040E850E40E9453
:100D600070092B013C01B501BB0C880B990B0E944B
:100D7000E4082CE933E549E457E30E9470099B013C
:100D8000AC01C301B2010E94CE074B015C01C60158
:100D90008C1B9D0BBC01990F880B990B0E94E408DA
:100DA00020E030E040EA50E40E9470099B01AC0171
:100DB000C501B4010E94CE070E94AC084B015C0142
:100DC000EB01D092B002C092AF02DD2314F580E0B7
:100DD00090E00E946D05C401DD2324F48827992743
:100DE0008819990987399105B4F531E3830E911C6F
:100DF00021E033E68316910408F020E0222381F1FC
:100E000021E045970CF420E0222351F1CEE1D0E01F
:100E100027C081E090E00E946D05C401DD2324F429
:100E2000882799278819990987399105BCF421E306
:100E3000820E911C21E033E68316910408F020E035
:100E4000222371F021E045970CF420E0222341F0A9
:100E5000C2E3D0E005C0C6E9D0E002C0C6E9D0E0F8
:100E6000CE01DD2324F4882799278C1B9D0B0E943B
:100E70004405DF91CF91FF90EF90DF90CF90BF902E
:100E8000AF909F908F907F906F905F904F9008955C
:100E90001F920F920FB60F9211240BB60F922F9341
:100EA0003F934F935F936F937F938F939F93AF93F2
:100EB000BF93EF93FF930E944406FF91EF91BF9180
:100EC000AF919F918F917F916F915F914F913F91E2
:100ED0002F910F900BBE0F900FBE0F901F90189583
:100EE000F894E1E7F0E0808181608083A0E9B0E0E0
:100EF0008C918E7F8C938C9182608C93E1E9F0E0F1
:100F00008081886080838081806180838C918F7BE9
:100F10008C938C9180688C938081816080838081A8
:100F20008D7F80838081846080838EEE92E09093B9
:100F30009700809396007894089590E09093220211
:100F4000809321020895A1E21A2EAA1BBB1BFD016A
:100F50000DC0AA1FBB1FEE1FFF1FA217B307E40798
:100F6000F50720F0A21BB30BE40BF50B661F771FF0
:100F7000881F991F1A9469F76095709580959095D0
:100F80009B01AC01BD01CF010895EE0FFF1F881F2B
:100F90008BBF0790F691E02D19945058BB27AA27D4
:100FA0000E94E5070C9436090E94280938F00E9437
:100FB0002F0920F039F49F3F19F426F40C942509E9
:100FC0000EF4E095E7FB0C941F09E92F0E944709F6
:100FD00058F3BA17620773078407950720F079F46E
:100FE000A6F50C9469090EF4E0950B2EBA2FA02DEE
:100FF0000B01B90190010C01CA01A0011124FF27C6
:10100000591B99F0593F50F4503E68F11A16F040C0
:10101000A22F232F342F4427585FF3CF46953795BF
:101020002795A795F0405395C9F77EF41F16BA0B84
:10103000620B730B840BBAF09150A1F0FF0FBB1F32
:10104000661F771F881FC2F70EC0BA0F621F731F7B
:10105000841F48F4879577956795B795F7959E3FD8
:1010600008F0B0CF9395880F08F09927EE0F979569
:10107000879508950E944E080C9436090E942F0906
:1010800058F00E94280940F029F45F3F29F00C94A1
:101090001F0951110C946A090C9425090E944709F3
:1010A00068F39923B1F3552391F3951B550BBB2797
:1010B000AA2762177307840738F09F5F5F4F220FDC
:1010C000331F441FAA1FA9F335D00E2E3AF0E0E8D3
:1010D00032D091505040E695001CCAF72BD0FE2F1D
:1010E00029D0660F771F881FBB1F261737074807B1
:1010F000AB07B0E809F0BB0B802DBF01FF27935869
:101100005F4F3AF09E3F510578F00C941F090C9404
:101110006A095F3FE4F3983ED4F386957795679527
:10112000B795F7959F5FC9F7880F911D969587959D
:1011300097F90895E1E0660F771F881FBB1F6217BC
:1011400073078407BA0720F0621B730B840BBA0B7A
:10115000EE1F88F7E09508950E94B3086894B111D6
:101160000C946A0908950E944F0988F09F5798F0DF
:10117000B92F9927B751B0F0E1F0660F771F881F9C
:10118000991F1AF0BA95C9F714C0B13091F00E94B6
:101190006909B1E008950C946909672F782F8827B1
:1011A000B85F39F0B93FCCF3869577956795B395DD
:1011B000D9F73EF490958095709561957F4F8F4F4C
:1011C0009F4F0895E89409C097FB3EF49095809551
:1011D000709561957F4F8F4F9F4F9923A9F0F92FFD
:1011E00096E9BB279395F695879577956795B7957B
:1011F000F111F8CFFAF4BB0F11F460FF1BC06F5F61
:101200007F4F8F4F9F4F16C0882311F096E911C072
:10121000772321F09EE8872F762F05C0662371F093
:1012200096E8862F70E060E02AF09A95660F771FA7
:10123000881FDAF7880F9695879597F9089597F99B
:101240009F6780E870E060E008959FEF80EC08956C
:1012500000240A9416161706180609060895002495
:101260000A9412161306140605060895092E03940F
:10127000000C11F4882352F0BB0F40F4BF2B11F483
:1012800060FF04C06F5F7F4F8F4F9F4F089557FDE2
:101290009058440F551F59F05F3F71F04795880FE4
:1012A00097FB991F61F09F3F79F08795089512167B
:1012B00013061406551FF2CF4695F1DF08C0161627
:1012C00017061806991FF1CF8695710561050894D8
:1012D0000895E894BB2766277727CB0197F90895EF
:1012E0000E9483090C9436090E94280938F00E9454
:1012F0002F0920F0952311F00C941F090C94250957
:1013000011240C946A090E94470970F3959FC1F358
:10131000950F50E0551F629FF001729FBB27F00DA3
:10132000B11D639FAA27F00DB11DAA1F649F6627F8
:10133000B00DA11D661F829F2227B00DA11D621F47
:10134000739FB00DA11D621F839FA00D611D221F01
:10135000749F3327A00D611D231F849F600D211DE5
:10136000822F762F6A2F11249F5750409AF0F1F068
:1013700088234AF0EE0FFF1FBB1F661F771F881FD1
:1013800091505040A9F79E3F510580F00C941F09E1
:101390000C946A095F3FE4F3983ED4F38695779501
:1013A0006795B795F795E7959F5FC1F7FE2B880F77
:1013B000911D9695879597F90895CF93DF93823085
:1013C000910510F482E090E0E091B702F091B8024C
:1013D00020E030E0C0E0D0E0309711F14081518151
:1013E00048175907C0F04817590761F48281938163
:1013F000209719F09B838A832BC09093B802809327
:10140000B70226C02115310519F04217530718F409
:101410009A01BE01DF01EF010280F381E02DDCCFF4
:101420002115310509F1281B390B2430310590F4C1
:1014300012968D919C9113976115710521F0FB0116
:101440009383828304C09093B8028093B702FD0116
:10145000329644C0FD01E20FF31F81939193225015
:1014600031092D933C933AC02091B5023091B602D8
:10147000232B41F420912502309126023093B602AD
:101480002093B502209123023091240221153105C9
:1014900041F42DB73EB74091270250912802241BFA
:1014A000350BE091B502F091B602E217F307A0F414
:1014B0002E1B3F0B2817390778F0AC014E5F5F4FAA
:1014C0002417350748F04E0F5F1F5093B602409324
:1014D000B5028193919302C0E0E0F0E0CF01DF918B
:1014E000CF9108950F931F93CF93DF93009709F443
:1014F0008CC0FC013297138212820091B7021091C6
:10150000B8020115110581F420813181820F931FEA
:101510002091B5023091B6022817390779F5F0937A
:10152000B602E093B50271C0D80140E050E0AE17BA
:10153000BF0750F412962D913C911397AD012115E0
:10154000310509F1D901F3CF9D01DA0133832283FB
:1015500060817181860F971F8217930769F4EC01F0
:1015600028813981260F371F2E5F3F4F318320831B
:101570008A819B8193838283452B29F4F093B8025F
:10158000E093B70242C01396FC93EE931297ED01DD
:10159000499159919E01240F351FE217F30771F409
:1015A00080819181840F951F029611969C938E9352
:1015B0008281938113969C938E931297E0E0F0E0E2
:1015C000D80112968D919C911397009719F0F8010C
:1015D0008C01F6CF8D919C9198012E5F3F4F820F29
:1015E000931F2091B5023091B6022817390769F48C
:1015F000309729F41092B8021092B70202C01382F9
:1016000012821093B6020093B502DF91CF911F9121
:101610000F910895CF93DF93CDB7DEB7AE014A5F48
:101620005F4FFA0161917191AF018091BB0290917E
:10163000BC020E944E0BDF91CF9108950F931F9330
:10164000CF93DF93E091BB02F091BC02238121FF95
:101650001BC08C01D0E0C0E0F80181918F01609146
:10166000BB027091BC02DB011896ED91FC911997B9
:10167000882331F01995892B79F3DFEFCFEFECCF89
:101680008AE01995892B19F08FEF9FEF02C08D2FFB
:101690009C2FDF91CF911F910F9108952F923F9230
:1016A0004F925F926F927F928F929F92AF92BF9272
:1016B000CF92DF92EF92FF920F931F93CF93DF931E
:1016C000CDB7DEB72C970FB6F894DEBF0FBECDBFF7
:1016D0007C016B018A01FC0117821682838181FFE4
:1016E000BDC1CE0101964C01F7019381F60193FD36
:1016F000859193FF81916F01882309F4ABC18532F5
:1017000039F493FD859193FF81916F01853229F41E
:10171000B70190E00E945F0DE7CF512C312C20E003
:101720002032A0F48B3269F030F4803259F08332E9
:1017300069F420612CC08D3239F0803339F4216096
:1017400026C02260246023C0286021C027FD27C056
:1017500030ED380F3A3078F426FF06C0FAE05F9E8D
:10176000300D1124532E13C08AE0389E300D112401
:10177000332E20620CC08E3221F426FD6BC1206412
:1017800006C08C3611F4206802C0883641F4F60198
:1017900093FD859193FF81916F018111C1CF982FA6
:1017A0009F7D9554933028F40C5F1F4FFFE3F9831E
:1017B0000DC0833631F0833771F0833509F05BC09B
:1017C00022C0F801808189830E5F1F4F4424439417
:1017D000512C540115C03801F2E06F0E711CF80154
:1017E000A080B18026FF03C0652D70E002C06FEFBE
:1017F0007FEFC5012C870E94540D2C0183012C859D
:101800002F77222E17C03801F2E06F0E711CF801FD
:10181000A080B18026FF03C0652D70E002C06FEF8D
:101820007FEFC5012C870E94490D2C012C85206873
:10183000222E830123FC1BC0832D90E048165906FD
:10184000B0F4B70180E290E00E945F0D3A94F4CFCB
:10185000F50127FC859127FE81915F01B70190E09A
:101860000E945F0D31103A94F1E04F1A5108411473
:10187000510471F7E5C0843611F0893639F5F80165
:1018800027FF07C060817181828193810C5F1F4FA8
:1018900008C060817181072E000C880B990B0E5FC8
:1018A0001F4F2F76722E97FF09C0909580957095E7
:1018B00061957F4F8F4F9F4F2068722E2AE030E056
:1018C000A4010E94970DA82EA81844C0853729F4BA
:1018D0002F7EB22E2AE030E025C0F22FF97FBF2EF6
:1018E0008F36C1F018F4883579F0B4C0803719F01C
:1018F000883721F0AFC02F2F2061B22EB4FE0DC06B
:101900008B2D8460B82E09C024FF0AC09F2F9660DB
:10191000B92E06C028E030E005C020E130E002C06A
:1019200020E132E0F801B7FE07C060817181828159
:1019300093810C5F1F4F06C06081718180E090E051
:101940000E5F1F4FA4010E94970DA82EA818FB2D13
:10195000FF777F2E76FE0BC0372D3E7FA51450F407
:1019600074FE0AC072FC08C0372D3E7E05C0BA2C3A
:10197000372D03C0BA2C01C0B52C34FF0DC0FE01B9
:10198000EA0DF11D8081803311F4397E09C032FFE8
:1019900006C0B394B39404C0832F867809F0B3943F
:1019A00033FD13C030FF06C05A2CB31418F4530C87
:1019B0005B18B32CB31468F4B70180E290E03C8765
:1019C0000E945F0DB3943C85F5CFB31410F43B181F
:1019D00001C0312C34FF12C0B70180E390E03C8796
:1019E0000E945F0D3C8532FF17C031FD03C088E7C0
:1019F00090E002C088E590E0B7010CC0832F8678A4
:101A000059F031FF02C08BE201C080E237FD8DE268
:101A1000B70190E00E945F0DA51438F4B70180E390
:101A200090E00E945F0D5A94F7CFAA94F401EA0D5A
:101A3000F11D8081B70190E00E945F0DA110F5CFEC
:101A4000332009F451CEB70180E290E00E945F0D8F
:101A50003A94F6CFF7018681978102C08FEF9FEF0E
:101A60002C960FB6F894DEBF0FBECDBFDF91CF919D
:101A70001F910F91FF90EF90DF90CF90BF90AF90AC
:101A80009F908F907F906F905F904F903F902F909E
:101A90000895FC010590615070400110D8F78095C1
:101AA00090958E0F9F1F0895FC016150704001902A
:101AB0000110D8F7809590958E0F9F1F08950F9372
:101AC0001F93CF93DF93FB01238121FD03C08FEF91
:101AD0009FEF28C022FF16C046815781248135819F
:101AE0004217530744F4A081B1819D012F5F3F4FFE
:101AF000318320838C93268137812F5F3F4F37833B
:101B0000268310C0EB01092F182F0084F185E02DEA
:101B10001995892BE1F68E819F8101969F838E8393
:101B2000812F902FDF91CF911F910F910895FA018E
:101B3000AA27283051F1203181F1E8946F936E7F0C
:101B40006E5F7F4F8F4F9F4FAF4FB1E03ED0B4E0FD
:101B50003CD0670F781F891F9A1FA11D680F791F3E
:101B60008A1F911DA11D6A0F711D811D911DA11D4F
:101B700020D009F468943F912AE0269F112430195F
:101B8000305D3193DEF6CF010895462F4770405DFA
:101B90004193B3E00FD0C9F7F6CF462F4F70405DA9
:101BA0004A3318F0495D31FD4052419302D0A9F704
:101BB000EACFB4E0A6959795879577956795BA95FE
:101BC000C9F700976105710508959B01AC010A2EC4
:101BD00006945795479537952795BA95C9F7620F9B
:0E1BE000731F841F951FA01D0895F894FFCF5A
:101BEE000024F40000000002000000002F0100009D
:101BFE00000000000002000000002F0100000000A5
:101C0E00F87F000000BF0220000000004D4350325C
:101C1E00353135206973204E4F5420696E20636F25
:101C2E006E66696775726174696F6E206D6F64653B
:101C3E00206166746572207265736574004D435041
:101C4E0032353135206973204E4F5420696E206332
:101C5E006F7272656374206D6F6465206166746562
:101C6E00722072657365740070756C73653A202509
:041C7E00640D0A00E7
:00000001FF
